:100000000C9401160C941E160C941E160C941E16BD
:100010000C941E160C941E160C941E160C941E1690
:100020000C941E160C941E160C941E160C941E1680
:100030000C941E160C9493160C941E160C941E16FB
:100040000C941E160C941E160C941E160C941E1660
:100050000C941E160C941E160C941E160C941E1650
:100060000C941E160C941E16FFFFFFFFFFFFFFFFF0
:10007000FFFFFFFFFFFFFFFFFFFFFFFFFFFFFFFF90
:10008000FFFF00000000FFFFFFFFFFFFFFFFFFFF7C
:10009000FFFFFFFFFFFFFFFFFFFFFFFFFFFFFFFC73
:1000A00000000000FFFFFFFFFFFFFFFFFFFFFFFF5C
:1000B000FFFFFFFFFFFFFFFFFFFFFFFFFFF8000055
:1000C0000000FFFFFFFFFFFFFFFFFFFFFFFFFFFF3E
:1000D000FFFFFFFFFFFFFFFFFFFFFFF80000000033
:1000E000FFFFFFFFFFFFFFFFFFFFFFFFFFFFFFFF20
:1000F000FFFFFFFFFFFFFFFFFFF000000000FFFF1B
:10010000FFFFFFFFFFFFFFFFFFFFFFFFFFFFFFFFFF
:10011000FFFFFFFFFFFFFFF000000000FFFFFFFFFA
:10012000FFFFFFFFFFFFFFFFFFFFFFFFFFFFFFFFDF
:10013000FFFFFFFFFFF000000000FFFFFFFFFFFFDA
:10014000FFFFFFFFFFFFFFFFFFFFFFFFFFFFFFFFBF
:10015000FFFFFFF000000000FFFFFFFFFFFFFFFFBA
:10016000FFFFFFFFFFFFFFFFFFFFFFFFFFFFFFFF9F
:10017000FFE000000000FFFFFFFFFFFFFFFFFFFFAA
:10018000FFFFFFFFFFFFFFFFFFFFFFFFFFFFFFE09E
:1001900000000000FFFFFFFFFFFFFFFFFFFFFFFF6B
:1001A000FFFFFFFFFFFFFFFFFFFFFFFFFFE000007C
:1001B0000000FFFFFFFFFFFFFFFFFFFFFFFFFFFF4D
:1001C000FFFFFFFFFFFFFFFFFFFFFFE0000000005A
:1001D000FFFFFFFFFFFFFFFFFFFFFFFFFFFFFFFF2F
:1001E000FFFFFFFFFFFFFFFFFFE000000000FFFF3A
:1001F000FFFFFFFFFFFFFFFFFFFFFFFFFFFFFFFF0F
:10020000FFFFFFFFFFFFFFE000000000FFFFFFFF19
:10021000FFFFFFFFFFFFFFFFFFFFFFFFFFFFFFFFEE
:10022000FFFFFFFFFFE000000000FFFFFFFFFFFFF9
:10023000FFFFFFFFFFFFFFFFFFFFFFFFFFFFFFFFCE
:10024000FFFFFFE000000000FFFFFFFFFFFFFFFFD9
:10025000FFFFFFFFFFFFFFFFFFFFFFFFFFFFFFFFAE
:10026000FFE000000000FFFFFFFFFFFFFFFFFFFFB9
:10027000FFFFFFFFFFFFFFFFFFFFFFFFFFFFFFE0AD
:1002800000000000FFFFFFFFFFFFFFFFFFFFFFFF7A
:10029000FFFFFFFFFFFFFFFFFFFFFFFFFFC00000AB
:1002A0000000FFFFFFFFFFFFFFFFFFFFFFFFFFFF5C
:1002B000FFFFFFFFFFFFFFFFFFFFFF8000000000C9
:1002C000FFFFFFFFFFFFFFFFFFFFFFFFFFFFFFFF3E
:1002D000FFFFFFFFFFFFFFFFFF8000000000FFFFA9
:1002E000FFFFFFFFFFFFFFFFFFFFFFFFFFFFFFFF1E
:1002F000FFFFFFFFFFFFFF8000000000FFFFFFFF89
:10030000FFFFFFFFFFFFFFFFFFFFFFFFFFFFFFFFFD
:10031000FFFFFFFFFF0000000000FFFFFFFFFFFFE8
:10032000FFFFFFFFFFFFFFFFFFFFFFFFFFFFFFFFDD
:10033000FFFFFF0000000000FFFFFFFFFFFFFFFFC8
:10034000FFFFFFFFFFFFFFFFFFFFFFFFFFFFFFFFBD
:10035000FF0000000000FFFFEFFFFFFFFFFFFFFEB9
:100360001FFFFFFFFFFFFFFFFFFFFFFFFFFFFF007C
:1003700000000000FFFFE3FFFFFFFFFFFFFC1EFF89
:10038000FFFFFFFFFFFFFFFFFFFFFFFFFF0000007A
:100390000000FFFFE3FFFFFFFFFFFFF8187FFFFFF5
:1003A000FFFFFFFFFFFFFFFFFFFFFF000000000058
:1003B000FFFFE3FFFFFFFFFFFFF09C7FFFFFFFFF5B
:1003C000FFFFFFFFFFFFFFFFFF0000000000FFFF38
:1003D000E3FFFFFFFFFFFFF19C7FFFFFFFFFFFFF3A
:1003E000FFFFFFFFFFFFFE0000000000FFFFF1FF27
:1003F000FFFFFFFFFFF19C7FFFFFFFFFFFFFFFFFFE
:10040000FFFFFFFFFE0000000000FFFFE000FFFF16
:10041000FFFFFFF19C7FFFFFFFFFFFFFFFFFFFFFDD
:10042000FFFFFE0000000000FFFFE000FFFFFFFFF6
:10043000FFF1987FFFFFFFFFFFFFFFFFFFFFFFFFC1
:10044000FC0000000000FFFFE000FFFFE1FFFFF8FD
:1004500098FFFFFFFFFFFFFFFFFFFFFFFFFFFC0015
:1004600000000000FFFFFFFFFFFFC1EFFFF800FFEC
:10047000FFFFFFFFFFFFFFFFFFFFFFFFFC0000008C
:100480000001FFFFFFFFFFFF8187FFFC01FFFFFF70
:10049000FFFFFFFFFFFFFFFFFFFFFC000000000169
:1004A000FFFFE000FFFF09C7FFFF07FFFFBFFFFFE0
:1004B000FFFFFFFFFFFFFFFFFC0000000001FFFF49
:1004C000E000FFFF19C7FFFFFFFFFF8FFFFFFFFFE8
:1004D000FFFFFFFFFFFFFC0000000003FFFFE00045
:1004E000FFFF19C7FFFFFFFFFF8FFFFFFFFFFFFFAA
:1004F000FFFFFFFFFE0000000007FFFFFFF1FFFF0F
:1005000019C7FFFFFFFFFF8FFFFFFFFFFFFFFFFF89
:10051000FFFFFF0000000007FFFFFFF8FFFF198744
:10052000FFFE007FFF8FFFFFFFFFFFFFFFFFFFFFCB
:10053000FC0000000007FFFFFFF8FFFF898FFFF8B6
:10054000007FFFC7FFFFFFFFFFFFFFFFFFFFF8C0B8
:100550000000000FFFFFFFF8FFFF800FFFF0007F9C
:10056000FF8003FFFFFFFFFFFFFFFFFFE1F0000041
:10057000000FFFFFFFF0FFFFC01FFFF0FFFFFF8036
:1005800003FFFFFFFFFFFFFFFFFF87F00000001FDB
:10059000FFFFE000FFFFF07FFFF1FFFFFF8003FFA1
:1005A000FFFFFFFFFFFFFFFF1FF00000001FFFFF27
:1005B000E001FFFFFFFFFFF1FFFFFFFFFFFFFFFF76
:1005C000FFFFFFFFFFFC7FF80000003FFFFFE0039D
:1005D000FFFFFFFFFFF1FFFFFFFFFFFFFFFFFFFF39
:1005E000FFFFFFF1FFFE0000007FFFFFFFFFFFE0C6
:1005F0000007FFF8FFFFFFF0FFFFFFFFFFFFFFFF18
:10060000FF83FFFF000000FFFFFFFFFFFFE0000789
:10061000FE00007FFFE0F7FFFFFFFFFFFFFC001F72
:10062000FFFF800001FFFFFFFFFFFFF00007FE005C
:10063000007FFFC0C3FFFFFFFFFFFFF8FFFFFFFFCB
:10064000C00007FFFFFFFE0FFFFF1FC7FF00007F77
:10065000FF84E3FFFFFFFFFFFFF1FFFFFFFFF0005D
:100660001FFFFFFFF803FFFF1FC7FFFFFFFFFF8C08
:10067000E3FFFFFFFFFFFFF1FFFFFFFFE6007FFF4C
:10068000FFFFF001FFFF1FC7FFFFFFFFFF8CE3FF2E
:10069000FFFFFFFFFFF07FFFFFFF8F01FFFFFFFF67
:1006A000E1F0FFFF1FC7FFF1FC7FFF8CE3FFFFFFBF
:1006B000FFFFFFF20FFFFFFF1F87FFFFFFFFE3F8C2
:1006C000FFFF0F87FFF1FC7FFF8CC3FFFFFFFFFFE2
:1006D000FFF3801FFFFE7FFFFFFFFFFFE3F8FFFF39
:1006E0008787FFF1FC7FFFC4C7FFFFFFFFFFFFF31A
:1006F000FFC07FF8FFFFFFFFFFFFE3F8FFFF800F62
:10070000FF00007FFFC007FFFFFFFFFFFFF3FFF8C1
:100710003FF3FFFFFFFFFFFFE3F8FFFFC01FFF8076
:1007200000FFFFE00FFFFFFFFFFFFFF3FFF99FE771
:10073000FFFFFFFFFFFFE1F0FFFFF03FFF8001FF42
:10074000FFF83FFFFFFFFFFFFFF3FFF9FFCFFFFFC2
:10075000FFFFFFFFF001FFFFFFFFFFF1FFFFFFFFC4
:10076000FFFFFFFFFFFFFFF3FFF9FF9FFFFFFFFF0B
:10077000FFFFF803FFFFFFFFFFFFFFFFFFFFFFFF8C
:10078000FFFFFFFFFFF3FFF9FF3FFFFFFFFFFFFF4B
:10079000FE0FFFFFF07FFFFFFFFFFFFFFFFFFFFFE9
:1007A000FFFFFFF3FFF9FE7FFFFFFFFFFFFFFFFFEC
:1007B000FFFFC01FFFFFFFFFFFF003FFFFFFFFFF73
:1007C000FFF3FFF9FCFFFFFFFFFFFFFFEFFFFFFF5E
:1007D000800FFFFFFFFFFFC003FFFFFFFFFFFFF3DF
:1007E000FFF9F9FFFFFFFFFFFFFFE3FFFFFF0F87A9
:1007F000FFFFFFFFFFC003FFFFFFFFFFFFF3FFF956
:10080000F3FFFFFFFFFFFFFFE0FFFFFF1FC7FFFF3B
:10081000FFFFFF87FFFFFFFFFFFFFFF3FFF9E7FF8A
:10082000FFFFFFFFFFFFF01FFFFF1FC7FFFFFFFFDF
:10083000FF8FFFFFFFFFFFFFFFF3FFF9CFFFFFFF7A
:10084000FFFFFFFFFC07FFFF1FC7FFFFFFFFFF8F3B
:10085000FFFFFFFFFFFFFFF3FFF91FFFFFFFFFFF9A
:10086000FFFFFF01FFFF1FC7FFFFFFFFFF8FFFFF1E
:10087000FFFFFFFFFFF3FFF87FFFFFFFFFFFFFFF1B
:10088000FFE07FFF0F87FFF7FFFFFFC7FFFFFFFFBF
:10089000FFFFFFF3FFF8FFFFFFFFFFFFFFFFFFC0BA
:1008A0001FFF800FFFF1FFFFFFC003FFFFFFFFFFF0
:1008B000FFF3FFF9FFFFFFFFFFFFFFFFFE000FFF4A
:1008C000C01FFFF1FFFFFF8003FFFFFFFFFFFFF3EC
:1008D000FFF9FFFFFFFFFFFFFFFFF00387FFF07F40
:1008E000FFF1FFFFFF8003FFFFFFFFFFFFF3FFF9B3
:1008F000FFFFFFFFFFFFFFFFE01FC7FFFFFFFFF14D
:10090000FFFFFFFFFFFFFFFFFFFFFFF3FFF9FFFF09
:10091000FFFFFFFFFFFFE0FFC7FFBFEFFFF8FFFF95
:10092000FFFFFFFFFFFFFFFFFFF3FFF9FFFFFFFFE9
:10093000FFFFFFFFE7FFFFFF0F87FFF0007FFFFFD5
:10094000FFFFFFFFFFFFFFF3FFF9FFFFFFFFFFFFC9
:10095000FFFFFFFFFFFF1FC7FFF0007FFFF003FF58
:10096000FFFFFFFFFFF3FFF9FFFFFFFFFFFFFFFFA9
:10097000FFFFFFFF1FC7FFF0007FFFC003FFFFFF68
:10098000FFFFFFF3FFF9FFFFFFFFFFFFFFFFFFFF89
:10099000FFFF1FC7FFFFFFFFFFC003FFFFFFFFFFBA
:1009A000FFF1FFF1FFFFFFFFFFFFFFFFFFFFFFFF73
:1009B0001FC7FFFFFFFFFF87FFFFFFFFFFFFFFF8DE
:1009C0000003FFFFFFFFFFFFFFFFFFFFFFFF0F879A
:1009D000FFFE1FFFFF8FFFFFFFFFFFFFFFFC000772
:1009E000FFFFFFFFFFFFFFFFFFFFFFFF878FFFFC02
:1009F0001EFFFF8FFFFFFFFFFFFFFFFFFFFFFFFF58
:100A0000FFFFFFFFFFFFFFFFFFFF800FFFF8187FD3
:100A1000FF8FFFFFFFFFFFFFFFFFFFFFFFFFFFFF56
:100A2000FFFFFFFFFFFFFFFFC01FFFF09C7FFFC71F
:100A3000FFFFFFFFFFFFFFFFFFFFFFFFFFFFFFFFC6
:100A4000FFFC0000FFFFF07FFFF19C7FFFC003FF72
:100A5000FFFFFFFFFFFFFFFFFFFFFFFFFFFFFFFCA9
:100A60000000FFFFFFFFFFF19C7FFF8003FFFFFF00
:100A7000FFFFFFFFFFFFFFFFFFFFFFFFFFFE000085
:100A8000FFFFFFFFFFF19C7FFF8003FFFFFFFFFFE2
:100A9000FFFFFFFFFFFFFFFFFFFFFFFFE3F8FFFF89
:100AA000FFFFFFF1987FFFFFFFFFFFFFFFFFFFFF4B
:100AB000F3FFFFFFFFFFFFFFFFFFE3F8FFFFF1FF83
:100AC000FFF898FFFFFFFFFFFFFFFFFFFFFFF3FFB0
:100AD000FFFFFFFFFFFFFFFFE3F8FFFFF1FFFFF85E
:100AE00000FFFFFFF3FFFFFFFFFFFFFFF3FFFFFF2D
:100AF000FFFFFFFFFFFFE3F8FFFFF1FFFFFC01FF38
:100B0000FFF003FFFFFFFFFFFFFFF3FFFFFFFFFF0C
:100B1000FFFFFFFFE1F0FFFFF1FFFFFF07FFFFC057
:100B200003FFFFFFFFFFFFFFF3FFFFFFFFFFFFFFDD
:100B3000FFFFF0F0FFFFF1FFFFFFFFFFFFC003FF2C
:100B4000FFFFFFFFFFFFF3FFFFFFFFFFFFFFFFFFC1
:100B5000F001FFFFF1FFFFFFFFFFFF8463FFFFFFD7
:100B6000FFFFFFFFF3FFFFFFFFFFFFFFFFFFF803A4
:100B7000FFFFFFFFFE00007FFF8C63FFFF80000090
:100B8000FFFFF3FFFFFFFFFFFFFFFFFFFE07FFFF7A
:100B9000FFF7FE00007FFF8C63FFFF800000FFFF78
:100BA000F3FFFFFFFFFFFFFFFFFFFFFFFFFFFFE779
:100BB000FF00007FFF8C63FFFF800000FFFF807F4E
:100BC000FFFFFFFFFFFFFFFFFFFFFFFE1F87FFF19C
:100BD000FC7FFF8E03FFFF800000FFFFC0FFFFFFD1
:100BE000FFFFFFFFFFFFFFFEFFF80F0FFFF1FC7F8E
:100BF000FFCE07FFFF800000FFFFC0FFFFFFFFFFEA
:100C0000FFFFFFFC0000FFF8041FFFF1FC7FFFFF68
:100C10000FFFFF800000FFFFE1FFFFFFFFFFFFFF6F
:100C2000FFFC0000FFF0C03FFFF1FC7FFFFFFFFF74
:100C3000FF800000FFFFE1FFFFFFFFFFFFFFFFFE60
:100C40000001FFF1E0FFFFF0F87FFFDFF7FFFF801B
:100C50000000FFFFF3FFFFFFFFFFFFFFFFFFFFFFAE
:100C6000FFF1E1FFFFF8787FFF87C3FFFF800000FF
:100C7000FFFFF3FFFFFFFFFFFFFFFFFFFFFFFFF19E
:100C8000E3FFFFF800FFFF8FE3FFFF800000FFFF9F
:100C9000FFFFFFFFFFFFFFFFFFFFFFFFFFF1E3FF8E
:100CA000FFFC01FFFF8FE3FFFF800000FFFFFFFF5E
:100CB000FFFFFFFFFFFFFFFFFE0FFFF00007FFFF3B
:100CC00003FFFF8FE3FFFF800000FFFFFFFFFFFF39
:100CD000FFFFFFFFFFFFF803FFF00007FFFFFFFF2D
:100CE000FF8FE3FFFF800000FFFFFFFFFFFFFFFF1D
:100CF000FFFFFFFFF001FFF00007FFFFFFFFFF878F
:100D0000C3FFFF800000FFFFFFFFFFFFFFFFFFFFAC
:100D1000FFFFE1F0FFFFFFFFFFFFFFFFFFC3C7FF84
:100D2000FF800000FFFFFFFFFFFFFFFFFFFFFFFF50
:100D3000E3F8FFFFFFF8FFFE007FFFC007FFFF8023
:100D40000000FFFFFFFFFFFFFFFFFFFFFFFFE3F8D4
:100D5000FFFFFFF8FFF8007FFFE00FFFFFFF1FFF1F
:100D6000FFFFFFFFFFFFFFFFFFFFFFFFE3F8FFFFB6
:100D700080F8FFF8007FFFF83FFFFFFF1FFFFFFF36
:100D8000FFFFFFFFFFFFFFFFFFFFE3F8FFFE00385D
:100D9000FFF0FFFFFFFFFFFFFFFE1FFFFFFFFFFF53
:100DA000FFFFFFFFFFFFFFFFE1F0FFFC0018FFF177
:100DB000FFFFFFFFFFFFFF823FFFFFFFFFFFFFFF80
:100DC000FFFFFFFFFFFFF001FFF83E01FFF1FFFF14
:100DD000FFDF8FFFFF003FFFFFFFFFFFFFFFFFFF72
:100DE000FFFFFFFFF803FFF8FF81FFF1FFFFFF8E1A
:100DF00007FFFF800FFFFFFFFFFFFFFFFFFFFFFF6A
:100E0000FFFFFE0FFFF1FFC3FFF8FFFFFF8E03FFA1
:100E1000FFF801FFFFFFFFFFFFFFFFFFFFFFFFFFE7
:100E2000FFFFFFF1FFC7FFF8007FFF8C63FFFFFFAD
:100E3000003FFFFFFFFFFFFFFFFFFFFFFFFFFFFF81
:100E4000FFF1FFC7FFF0007FFF8C63FFFFFFE007AC
:100E5000FFFFFFFFFFFF83FFFFFFFFFE0000FFF12B
:100E6000FFC7FFF0007FFF88E3FFFFFFFC00FFFFED
:100E7000FFFFFFFF03FFFFFFFFFE0000FFF1FFC7C3
:100E8000FFFFFFFFFF80E3FFFFFFFF801FFFFFFF6C
:100E9000FFFF03FFFFFFFFFE0000FFF8FF8FFFFFD4
:100EA000FFFFFFC1E3FFFFFFFFF003FFFFFFFFFFB7
:100EB00003FFFFFFFFFFF8FFFFF83E0FFFF0007F8B
:100EC000FFE3F7FFFFFFFFFE007FFFFFFFFF03FFD2
:100ED000FFFFFFFFF8FFFFFC001FFFF0007FFFFF99
:100EE000FFFFFFFFFFFFC00FFFFFFFFF03FFFFFF3D
:100EF000FFFFF8FFFFFE003FFFF0007FFFFFFFFF57
:100F0000FFFFFFFFF801FFFFFFFF03FF81FFFFFF70
:100F1000F8FFFFFF80FFFFFFF8FFFFFFFFFFFFFF6E
:100F2000FFFFFF001FFFFFFF03FF01FFFFFFF8FFB1
:100F3000FFFFFFFFFFFFFC7FFFFFFFFFFFFFFFFF44
:100F4000FFE003FFFFFF83FE03FFFFFFF8FFFFFF4C
:100F5000FFFFFFFFFC7FFFFFFFFFFFFFFFFFFFFC27
:100F6000007FFFFF81FC07FFFFFFF8FFFFFFFFFF90
:100F7000FFFFFC7FFFFFFFFFFFFFFFFFFFFFC00F33
:100F8000FFFF81F80FFFFFFE0000FFFFFFFFFFFFE5
:100F9000F87FFFFFFFFFFFFFFFFFFFFFF801FFFFED
:100FA00081F01FFFFFFE0000FFFFFFFFFFF0007F4B
:100FB000FFFFFFFFFFFFFFFFFFFFFF003FFF81E09D
:100FC0003FFFFFFE0000FFFFFFFFFFF000FFFFFFFE
:100FD000FFFFFFFFFFFFFFFFFFE007FF81C07FFF75
:100FE000FFFFFFFFFFFFFFFFFFF001FFFFFFFFFF1E
:100FF000FFFFFFFFFFFFFFFC00FF8180FFFFFFFF00
:10100000FFFFFFFFFFFFFFFFFFFFFFFFFFFFFFFFF0
:10101000FFFFFFFFFFFF801F8101FFFFFFFFFFFFBB
:10102000FFFFFFFFFFFFFFFFFFFFFFFFFFFFFFFFD0
:10103000FFFFFFFFF003C003FFFFFFFFFFFFFFFF06
:10104000FFFFFFFFFFFFFFFFFFFFFFFFFFFFFFFFB0
:10105000FFFFFE004007FFFFFFFFFFFFFFFFFFFF57
:10106000FFFFFFFFFFFFFFFFFFFFFFFFFFFFFFFF90
:10107000FFC0000FFFFFFFFFFFFFFFFFFFFFFFFFAE
:10108000FFFFFFFFFFFFFFFFFFFFFFFFFFFFFFF877
:10109000001FFFFFFFFFFFFFFFFFFFFFFFFFFFFF3F
:1010A000FFFFFFFFFFFFFFFFFFFFFFFFFFFF003F0F
:1010B000FFFFFFFFFFFFFFFFFFFFFFFFFFFFFFFF40
:1010C000FFFFFFFFFFFFFFFFFFFFFFFFE07FFFFFCF
:1010D000FFFFFFFFFFFFFFFFFFFFFFFFFFFFFFFF20
:1010E000FFFFFFFFFFFFFFFFFFFFFFFFFFFFFFFF10
:1010F000FFFFFFFFFFFFFFFFFFFFFFFFFFFFFFFF00
:10110000FFFFFFFFFFFFFFFFFFFFFFFFFFFFFFFFEF
:10133000FFFFFFFFFFFFFFFFFFFFFFFFFF8000003A
:1013400000001FFFFFFFFFFFFFFFFFFFFFFFFFFF8B
:10135000FFFFFFFFFFFFFFFFFFFFFF000000000098
:101360001FFFFFFFFFFFFFFFFFFFFFFFFFFFFFFF6D
:10137000FFFFFFFFFFFFFFFFFE00000000001FFF59
:10138000FFFFFFFFFFFFFFFFFFFFFFFFFFFFFFFF6D
:10139000FFFFFFFFFFFFFC00000000003FFFFFFF1B
:1013A000FFFFFFFFFFFFFFFFFFFFFFFFFFFFFFFF4D
:1013B000FFFFFFFFFC00000000003FFFFFFFFFFFFB
:1013C000FFFFFFFFFFFFFFFFFFFFFFFFFFFFFFFF2D
:1013D000FFFFFC00000000003FFFFFFFFFFFFFFFDB
:1013E000FFFFFFFFFFFFFFFFFFFFFFFFFFFFFFFF0D
:1013F000F800000000007FFFFFFFFFFFFFFFFFFF7F
:10140000FFFFFFFFFFFFFFFFFFFFFFFFFFFFF800F2
:10141000000000007FFFFFFFFFFFFFFFFFFFFFFF58
:10142000FFFFFFFFFFFFFFFFFFFFFFFFF0000000D8
:101430000000FFFFFFFFFFFFFFFFFFFF8000003FF7
:10144000FFFFFFFFFFFFFFFFFFFFF00000000000B6
:10145000FFFFFFFFFFFFFFFFFFFF8000003FFFFFD9
:10146000FFFFFFFFFFFFFFFFE00000000000FFFFA6
:10147000FFFFFFFFFFFFFFFFC000003FFFFFFFFF79
:10148000FFFFFFFFFFFFE00000000000FFFFFFFF86
:10149000FFFFFFFFFFFFC000003FFFFFFFFFFFFF59
:1014A000FFFFFFFFC00000000001FFFFFFFFFFFF85
:1014B000FFFFFFFFFFC3F87FFFFFFFFFFFFFFFFFFF
:1014C000FFFFC00000000001FFFFFFFFFFFFF83F2C
:1014D000FFFFFF87FC3FFFFFFFFFFFFFFFFFFFFF57
:1014E000800000000003FFFFFFFFFFFFF03EFFFF53
:1014F000FF87FC3FFFFFFFFFFFFFFFFFFFFF8000B5
:1015000000000003FFFFFFFFFFFFE0387FFFFF87C2
:10151000FC3FFFFFF83FFFFFFFFFFFFF80000000E1
:101520000003FFFFFFFFFFFFC0387FFFFF87FC3F87
:10153000FFFFF03EFFFFFFFFFFFF800000000007FE
:10154000FFFFFFFFFFFFC23C3FFFFF83FC3FFFFFAA
:10155000E0387FFFFFFFFFFF800000000007FFFF74
:10156000FFFFFFFF863C3FFFFF83F83FFFFFC038D0
:101570007FFFFFFFFFFFC0000000000FFFFFFFFF26
:10158000FFFF863C3FFFFFC1F07FFFFFC23C3FFFF4
:10159000FFFFFFFFE0000000000FFFFFFFFFFFFF66
:1015A000863C3FFFFFE0007FFFFF863C3FFFFFFFE1
:1015B000FFFFF0000000001FFFFFFFFFFFFF863C62
:1015C0003FFFFFE000FFFFFF863C3FFFFFFFFFFF05
:1015D000F0000000007FFFFFFFFFFFFF863C3FFFA2
:1015E000FFF801FFFFFF863C3FFFFFFFFFFFF0001A
:1015F000000000FFFFFFFFFFFFFF86383FFFFFFEF9
:1016000007FFFFFF863C3FFFFFFFFFFFE0000000FA
:1016100000FFFFFFFFFFFFFFC2387FFFFFFFFFFF5D
:10162000FFFF863C3FFFFFFFFFFFC800000001FFF8
:10163000FFFFFFFFFFFFC2307FFFFFFFFFFFFFFF46
:1016400086383FFFFFFFFFFF9800000001FFFFFF0C
:10165000FFFFFFFFE0007FFFFFF83FFFFFFFC23803
:101660007FFFFFFFFFFF1C00000003FFFFFFFFFFE6
:10167000FFFFE000FFFFFFF03EFFFFFFC2307FFFF4
:10168000FFFFFFFF3E00000007FFFFFFFFFFFFFF20
:10169000F801FFFFFFE0387FFFFFE0007FFFFFFF63
:1016A000FFFE7F00000007FFFFFFFFFFFFFFFE07B9
:1016B000FFFFFFC0387FFFFFE000FFFFFFFFFFFCE1
:1016C000FF8000000FFFFFFFFFFFFFFFFFFFFFFF97
:1016D000FFC23C3FFFFFF801FFFFFFFFFFFDFF8060
:1016E00000001FFFFFFFFFFFFFFFFFFFFFFFFF8661
:1016F0003C3FFFFFFE07FFFFFFFFFFF9FFC00000B9
:101700001FFFFFFFFFFFFFFFFFFFFFFFFF863C3FC5
:10171000FFFFFFFFFFFFFFFFFFF3FFE000003FFFC2
:10172000FFFFFFFFFFFFFFFFFFFFFF863C3FFFFFC5
:10173000FFFFFFFFFFFFFFE7FFFC00003FFFFFFF92
:10174000FFFFFFFFF8003FFFFF863C3FFFFFFFFF6B
:10175000FFFFFFFFFFCFFFFC00007FFFFFFFFFFF4A
:10176000FFFFE0003FFFFF863C3FFF8000003FFFA0
:10177000FFFFFF9FFFFE0001FFFFFFFFFFFFFFFFD7
:10178000C0003FFFFF86383FFF8000003FFFFFFFA4
:10179000FF3FFFFE0007FFFFFFFFFFFFFFFFC0004F
:1017A0003FFFFFC2387FFFC000003FFFFFFFFE7F0B
:1017B000FFFE0007FFFFFFFFFFFFFFFF83FFFFFFAD
:1017C000FFC2307FFFC000003FFFFFFFFCFFFFFCB8
:1017D000C01FFFFFFFFFFFFFFFFF83FFFFFFFFE0D3
:1017E000007FFFFFC3F87FFFFFFFF9FFFFF8E07FF7
:1017F000FFFFFFFFFFFFFFFF87FFFFFFFFE000FF8F
:10180000FFFF87FC3FFFFFFFF3FFFFF9FFFFFFFF35
:10181000FFFFFFFFFFFF87FFFFFFFFF801FFFFFF55
:1018200087FC3FFFFFFFE7FFFFF3FFFFFFFFFFFF27
:10183000FFFFFFFF87FFFFFFFFFE07FFFFFF87FCA4
:101840003FFFFFFFCFFFFFF3FFFFFFFFFFFFFFFFA4
:10185000FFFFC7FFFFFFFFFFFFFFFFFF87FC3FFF0B
:10186000FFFF9FF7FFE7FFFFFFFFFFFFFFFFFFFF08
:10187000C3FFFFFFFFBFFFFFFFFF83FC3FFFFFFF33
:101880009FF3FFE7FFFFFFFFFFFFFFFFFF80000069
:101890003FFFFF87FFFFFFFF83F83FFFFFFF3FF999
:1018A000FFCFFFFFFFFFFFFFFFFFFF8000003FFFB5
:1018B000FF81FFFFFFFFC1F07FFFFFFE7FF8FF9F6B
:1018C000FFFFFFFFFFFFFFFFFFC000003FFFFF80A4
:1018D0003FFFFFFFE0007FFFFFFC7FF8FF9FFFFF60
:1018E000FFFFFFFFFFFFFFC000003FFFFFC00FFF34
:1018F000FFFFE000FFFFF8000001FF3FFFFFFFFFD9
:10190000FFFFFFFFFFFFFFFFFFFFFFF801FFFFFFEC
:10191000F801FFFFF0000000FE3FFFFFFFFFFFFFA9
:10192000FFFFFFFFFFFFFFFFFFFE007FFFFFFE0740
:10193000FFFFE3FFFFFDFE7FFFFFFFFFFFFFFFFF56
:10194000FFFFFFF83FFFFFFFC00FFFFFFFFFFFFF9D
:10195000E7FFFFFCFE7FFFFFFFFFFFFFFFFFFFFF33
:1019600087FC3FFFFFFFF803FFFFFFFFFFFFE7FFDD
:10197000FFFCFCFFFFFFFFFFFFFFFFFFFFFF87FCF8
:101980003FFFFFFFE001FFFFFFFFFFFFE7FFFFFE5D
:101990007CFFFFFFFFFFFFFFFFFFFFFF87FC3FFF15
:1019A000FFFF0000FFFFFC07FFFFE7FFFFFE7CFFDC
:1019B000FFFFFFFFFFFFFFFFFFFF87FC3FFFFFFC75
:1019C00000F0FFFFF001FFFFE7FFFFFE7CFFFFFFDE
:1019D000FFFFFFFFFFFFFFFF87F83FFFFFF003F868
:1019E0007FFFE000FFFFE7FFFFFE7CFFFFFFFFFF41
:1019F000FFFFFFFFFFF000003FFFFFC01FF87FFF6A
:101A0000C0007FFFE7FFFFFE7CFFFFFFFFFFFFFF40
:101A1000FFFFFFF800007FFFFF807FF87FFFC1F02E
:101A20007FFFE7FFFFFE7CFFFFFFFFFFFFFFFFFFE2
:101A3000FFF800007FFFFF81FFF87FFF83F83FFF83
:101A4000E7FFFFFE7CFFFFFFFFFFFFFFFFFFFFF849
:101A50000001FFFFFF8FFFFFFFFF87FC3FFFE7FF56
:101A6000FFFE7CFFFFFFFFFFFFFFFFFFFFFF87FF82
:101A7000FFFFFFBFFFFFFFFF87FC3FFFE7FFFFFE0A
:101A80003CFFFFFFFFFFFFFFFFFFFFFF87FFFFFFA1
:101A9000FFFFFFFFFFFF87FC3FFFE7FFFFFE3CFF6D
:101AA000FFFFFFFFFFFFFFFFFFFFFFFFFFFFFFFF46
:101AB000FF3FFFFF87FC3FFFE7FFFFFF3CFFFFFF0C
:101AC000FFFFFFFFFFFFFFFFFFFFFFFFFFF8003FEC
:101AD000FFFF83F83FFFE7FFFFFF9CFFFFFFFFFFD4
:101AE000FFFFFFFFFFFFFFFFFFFFFFE0003FFFFFE4
:101AF000C1F07FFFE7FFFFFF99FFFFFFFFFFFFFF41
:101B0000FFFFFFFFFFFFFFFFFFC0003FFFFFC00021
:101B10007FFFE3FFFFFFC1FFFFFFFFFFFFFFFFFFAF
:101B2000FFFFFFFFFFFFFFC0007FFFFFE000FFFFA1
:101B3000F000000003FFFFFFFFFFFFFFFFFFFFFFBD
:101B4000FFFFFFFFFF82187FFFFFF001FFFFF8009C
:101B5000000007FFFFFFFFFFFFFFFFFFFFFFFFFF8B
:101B6000FFFFFF861C7FFFFFFC07FFFFFFFFFFFF5C
:101B7000FFFFFFFFFFFFFFFFFFFFFFFFFFFFFFFF75
:101B8000FF861C3FFFFFFFFFFFFFFFFFFFFFFFFF81
:101B9000FFFFFFFFFFFFFFFFFFFFFFFFFFFFFF86CE
:101BA0001C3FFFFFFFFFFFFFFFFFFFFFFFFFFFFFE8
:101BB000FFFFFFFFFFFFFFFFFFFFFFFFFF861C3F51
:101BC000FFFFEFFEFFFFFFFFFFFFFFFFFFFFFFFF36
:101BD000FFFFFFFFFFFFFFFFFFFFFF861C3FFFFF31
:101BE000C3F07FFFFFFF9FFFFFFFFFFFFFFFFFFF30
:101BF000FFFFFFFFFFFFFFFFFF87083FFFFF83F8A7
:101C00007FFFFFFF9FFFFFFFFFFFFFFFFFFFFFFFC4
:101C1000FFFFFFFFFFFFFF83003FFFFF83FC3FFF4E
:101C2000FFFF9FFFFFFFFFFFFFFFFFFFFFFFFFFF24
:101C3000F8003FFFFFCF807FFFFF87FC3FFFFFFFE4
:101C40009FFFFFFFFFFFFFFFFFFFFFFFFFFFE00022
:101C50003FFFFFFF807FFFFF87FC3FFFFFFF9FFFEE
:101C6000FFFFFFFFFFFFFFFFFFFFFFFFC0003FFF82
:101C7000FFFFE1FFFFFF87FC3FFFFFFF9FFFFFFF2D
:101C8000FFFFFFFFFFFFFFFFFFFFC0003FFFFFFF62
:101C9000FFFFFFFF87FC3FFFFFFF9FFFFFFFFFFFEF
:101CA000FFFFFFFFFFFFFFFF83FFFFFFFFFFFFFFC0
:101CB000FFFF83FC3FFFFFFF9FFFFFFFFFFFFFFFD3
:101CC000FFFFFFFFFFFF87FFFFFFFFFFFF7FFFFF1C
:101CD000C3F83FFFFFFF9FFFFFFFFFFFFFFFFFFF77
:101CE000FFFFFFFF87FFFFFFFFFFFE3FFFFFC1F08A
:101CF0007FFFFFFC03FFFFFFFFFFFFFFFFFFFFFF73
:101D0000FFFF87FFFFFF8000003FFFFFE0007FFF36
:101D1000FFFE07FFFFFFFFFFFFFFFFFFFFFFFFFFCC
:101D200087FFFFFF8000003FFFFFE000FFFFFFFE97
:101D300007FFFFFFFFFFFFFFFFFFFFFFFFFF87FF23
:101D4000FFFFC000003FFFFFF801FFFFFFFF0FFF95
:101D5000FFFFFFFFFFFFFFFFFFFFFFFFC3FFFFFFCF
:101D6000C000007FFFFFFE07FFFFFFFF0FFFFFFF29
:101D7000FFFFFFFFFFFFFFFFFFFFC0003FFFFFFF71
:101D8000FFFFFFFFFFFFFFFFFFFF9FFFFFFFFFFFC3
:101D9000FFFFFFFFFFFFFFFF80003FFFFFFFFFFF91
:101DA000FFFFFFFFFFFFFFFF9FFFFFFFFFFFFFFFA3
:101DB000FFFFFFFFFFFF80003FFFFFFFFFFFFFFF71
:101DC000FC3FFFFFFFFFFFFFFFFFFFFFFFFFFFFFE6
:101DD000FFFFFFFF80003FFFFFFFFFFFFFFFFC3F14
:101DE000FFFFFFFFFFFFFFFFFFFFFFFFFFFFFFFF03
:101DF000FFFFFFFFFFFFFFFC07FFFFFFFC3FFFFFB1
:101E0000FFFFFFFFFFFFFFFFFFFFFFFFFFFFFFFFE2
:101E1000FFFFFFFFFFF001FFFFFFFC3FFFFFFFFFA2
:101E2000FFFFFFFFFFFFFFFFFFFFFFFFFFFFFFFFC2
:101E3000FFFFFFE000FFFFFFFC3FFFFFFF80000010
:101E4000FFFFFFFFFFFFFFFFFFFFFFFFFFFF3FFF62
:101E5000FFC0007FFFFFFC3FFFFFFF800000FFFF90
:101E6000FFFFFFFFFFFFFFFFFFFFF8003FFFFFC186
:101E7000F07FFFFFFC3FFFFFFF800000FFFFFFFF41
:101E8000FFFFFFFFFFFFFFFFE0003FFFFF83F83F83
:101E9000FFFFFC3FFFFFFF800000FFFFFFFFFFFF92
:101EA000FFFFFFFFFFFFC0003FFFFF87FC3FFFFF7B
:101EB000FC3FFFFFFF800000FFFFFFFFFFFFFFFF72
:101EC000FFFFFFFFC0007FFFFF87FC3FFFFFFFFF1B
:101ED000FFFFFF800000FFFFFFFFFFFFFFFFFFFF8F
:101EE000FFFF82187FFFFF87FC3FFFFFFFFFFFFF21
:101EF000FF800000FFFFFFFFFFFFFFFFFFFFFFFF6F
:101F0000861C7FFFFF87FC3FFFFFFFFFBFFFFF80B7
:101F10000000FFFFFFFFFFFFFFFFFFFFFFFF861C2B
:101F20003FFFFF87FC3FFFFFFFFF3FFFFF800000F9
:101F3000FFFFFFFFFFFFFFFFFFFFFFFF861C3FFFCD
:101F4000FFC3F87FFFFFFFFC3FFFFF800000FFFFA4
:101F5000FFFFFFFFFFFFFFFFFFFF861C3FFFFF802C
:101F600000007FFC1FF83FFFFF800000FFFFFFFF26
:101F7000FFFFFFFFFFFFFFFF861C3FFFFF8000000A
:101F80007FF007E07FFFFF800000FFFFFFFFFFFF04
:101F9000FFFFFFFFFFFF87083FFFFF8000007FF08C
:101FA00003C0FFFFFF800000FFFFFFFFFFFFFFFFF9
:101FB000FFFFFFFF83003FFFFF8000007FE0010184
:101FC000FFFFFF800000FFFFFFFFFFFFFFFFFFFF9E
:101FD000FFFFCF807FFFFFFFFFFFFFE1E007FFFF75
:101FE000FF800000FFFFFFFFFFFFFFFFFFFFFFFF7E
:101FF000FF807FFFFFFFFFFFFFC1E00FFFFFFF80BC
:102000000000FFFFFFFFFFFFFFFFFFFFFFFFFFE1FC
:10201000FFFFFFFFFFFFFFC3F01FFFFFFFFF1FFFDB
:10202000FFFFFFFFFFFFFFFFFFFFFFFFFFFFFFFFC0
:10203000FFFFE1FFFFC3F07FFFFFFFFF1FFFFFFF79
:10204000FFFFFFFFFFFFFFFFFFFFFFFFFFFFFFDFC0
:10205000C0FFFFC3F0FFFFFFFFFE1FFFFFFFFFFFFB
:10206000FFFFFFFFFFFFFFFFEFFEFFFFFFC7807FC8
:10207000FFC3F0FFFFFFFF823FFFFFFFFFFFFFFFF8
:10208000FFFFFFFFFFFFC3F07FFFFF87803FFFC31E
:10209000F0FFFFFFFF003FFFFFFFFFFFFFFFFFFF1E
:1020A000FFFFFFFF83F87FFFFF870C3FFFC00000AB
:1020B0003FFFFF800FFFFFFFFFFFFFFFFFFFFFFF5F
:1020C000FFFF83FC3FFFFF871C3FFFC000003FFF77
:1020D000FFF801FFFFFFFFFFFFFFFFFFFFFFFFFF15
:1020E00087FC3FFFFF861C3FFFC000003FFFFFFF54
:1020F000003FFFFFFFFFFFFFFFFFFFFFFFFF87FC2A
:102100003FFFFF863C3FFFC000003FFFFFFFE007AF
:10211000FFFFFFFFFFFF83FFFFFFFFFF87FC3FFF86
:10212000FF803C3FFFFFFFFFFFFFFFFFFC00FFFFC3
:10213000FFFFFFFF03FFFFFFFFFF87FC3FFFFFC025
:10214000783FFFFFFFFFE1FFFFFFFF801FFFFFFF63
:10215000FFFF03FFFFFFFFFF83FC3FFFFFC0787F10
:10216000FFFFFFFFE1FFFFFFFFF003FFFFFFFFFFA8
:1021700003FFFFFFFFFFC3F83FFFFFE1FE7FFFFF0D
:10218000FFFFE1FFFFFFFFFE007FFFFFFFFF03FFF9
:10219000FFFFFFFFC1F07FFFFFFFFFFFFFFFC03F1B
:1021A000E1FFFFFFFFFFC00FFFFFFFFF03FFFFFF88
:1021B000FFFFE0007FFFFFFFFFFFFFFE0007E1FFE3
:1021C000FFFFFFFFF801FFFFFFFF03FF81FFFFFF9E
:1021D000E000FFFFFFFFFFFFFFF80003E3FFFFFF4B
:1021E000FFFFFF001FFFFFFF03FF01FFFFFFF801DD
:1021F000FFFFFFFFFFFFFFF00001C3FFFFFFFFFF37
:10220000FFE003FFFFFF83FE03FFFFFFFE07FFFF6B
:10221000E380003FFFF03FC0C3FFFFFFFFFFFFFC75
:10222000007FFFFF81FC07FFFFFFFFFFFFFFC18073
:10223000003FFFE0FFF007FFFFFFFFFFFFFFC00FC2
:10224000FFFF81F80FFFFFFFFFFFFFFFC180003F8F
:10225000FFE1FFF80FFFFFFFFFFFFFFFF801FFFFA8
:1022600081F01FFFFFFFFFFFFFFFC180003FFFC1A5
:10227000FFF81FFFFFFFFFFFFFFFFF003FFF81E0B1
:102280003FFFFFFFFF83FFFFE387FFFFFFC3FFFC6D
:102290003FFFFFFFFFFFFFFFFFE007FF81C07FFF62
:1022A000FFE7FE01FFFFFF87FFFFFFC3FFFC3FFFCC
:1022B000FFFFFFFFFFFFFFFC00FF8180FFFFFFE14B
:1022C000FC00FFFFFFFFFFFFFFC3FFFC3FFFFFFF1F
:1022D000FFFFFFFFFFFF801F8101FFFFFFC1FC0029
:1022E0007FFFFFFFFFFFFFC3FFFC3FFFFFFFFFFF7D
:1022F000FFFFFFFFF003C003FFFFFFC3F8387FFFBE
:10230000FFFFFFFFFFC3FFF83FFFFFFFFFFFFFFFE0
:10231000FFFFFE004007FFFFFFC3F87C3FFF800088
:10232000003FFFE1FFF87FFFFFFFFFFFFFFFFFFF21
:10233000FFC0000FFFFFFFC3F0FC3FFF8000003F26
:10234000FFE0FFF07FFFFFFFFFFFFFFFFFFFFFF852
:10235000001FFFFFFFC3E0FC3FFFC000003FFFF096
:102360003F80FFFFFFFFFFFFFFFFFFFFFFFF003F7B
:10237000FFFFFFC3E1FC3FFFC000003FFFF0000094
:10238000FFFFFFFFFFFFFFFFFFFFFFFFE07FFFFFFC
:10239000FFC1C1FC3FFFFFC3F87FFFFC0003FFFF4D
:1023A000FFFFFFFFFFFFFFFFFFFFFFFFFFFFFFE05C
:1023B00003FC3FFFFF87FC3FFFFE0007FFFFFFFF1F
:1023C000FFFFFFFFFFFFFFFFFFFFFFFFFFE007F83B
:1023D0003FFFFF87FC3FFFFFC03FFFFFFFFFFFFF07
:1023E000FFFFFFFFFFFFFFFFFFFFFFF00FF87FFF83
:1023F000FF87FC3FFFFFFFFFFFFFFFFFFFFFFFFF28
:10240000FFFFFFFFFFFFFFFFFFFC1FFE7FFFFF87B8
:10241000FC3FFFFFFFFFFFFFFFFFFFFFFFFFFFFF8F
:10242000FFFFFFFFFFFFFFFFFFFFFFFFFF83FC3FFB
:10243000FFFFFFFFFFFFFFFFFFFFFFFFFFFFFFFFAC
:10244000FFFFFFFFFFFFFFFFFFFFFF83F83FFFFFDF
:10245000FFFFFFFFFFFFFFFFFFFFFFFFFFFFFFFF8C
:10246000FFFFFFFFFFFFFFFFFFC1F07FFFFFFFFF49
:10247000FFFFFFFFFFFFFFFFFFFFFFFFFFFFFFFF6C
:10248000FFFFFFFFFFFFFFE0007FFFFFFFFFFFFFFA
:10249000FFFFFFFFFFFFFFFFFFFFFFFFFFFFFFFF4C
:1024A000FFFFFFFFFFE000FFFFFFFFFFFFFFFFFF5A
:1024B000FFFFFFFFFFFFFFFFFFFFFFFFFFFFFFFF2C
:1024C000FFFFFFF801FFFFFFFFFFFFFFFFFFFFFF21
:1024D000FFFFFFFFFFFFFFFFFFFFFFFFFFFFFFFF0C
:1024E000FFFE07FFFFFFFFFFFFFFFFFFFFFFFFFFF5
:1024F000FFFFFFFFFFFFFFFFFFFFFFFFFFFFFFFFEC
:10250000FFFFFFFFFFFFFFFFFFFFFFFFFFFFFFFFDB
:10251000FFFFFFFFFFFFFFFFFFFFFFFFFFFFFFFFCB
:10252000FFFFFFFFFFFFFFFFFFFFFFFFFFFFFFFFBB
:10253000FFFFFFFFFFFFFFFFFFFFFFFFFFFFFFFFAB
:10254000FFFFFFFFFFFFFFFFFFFFFFFFFFFFFFFF9B
:10255000FFFFFFFFFFFFFFFFFFFFFFFFFFFFFFFF8B
:10256000FFFFFFFFFFFFFFFFFFFFFFFFFFFFFFFF7B
:10257000FFFFFFFFFFFFFFFFFFFFFFFFFFFFFFFF6B
:10258000FFFFFFFFFFFFFFFFFFFFFFFFFFFFFFFF5B
:10259000FFFFFFFFFFFFFFFFFFFFFFFFFFFFFFFF4B
:1025A000FFFFFFFFFFFFFFFFFFFFFFFFFFFFFFFF3B
:1025B000FFFFFFFFFFFFFFFFFFFFFFFFFFFFFFFF2B
:1025C000FFFFFFFFFFFFFFFFFFFFFFFFFFFFFFFF1B
:1025D000FFFFFFFFFFFFFFFFFFFFFFFFFFFFFFFF0B
:1025E000FFFFFFFFFFFFFFFF010013070100100ABD
:1025F00001000D0D010009110100220A01001C104B
:10260000010016160100101C0100370F01002C1AE2
:102610000200111202000D160100501402002012D7
:102620000200181A0400091001006C1A02002B188D
:1026300002020F1202020B160200441204001B10C9
:102640000400131804000F1C02004E1404001F1293
:1026500002040E1204010D1A02006118020226166D
:102660000402121604020E1A0200741E030224163B
:102670000404101404040C180202441204012B1A5E
:102680000602131806020F1C040051140104321E26
:102690000404161C03080C1802025C180602241617
:1026A0000406141A07040E1C04006B1A08012516F0
:1026B000080414180C040B160301731E04052818D3
:1026C0000B0510140B050C180501571605052918E4
:1026D0000507181E0B070C180501621807032D1CAF
:1026E0000F021318030D0F1E01056B1C0A012E1C8F
:1026F000010F161C02110E1C0501781E09042B1A6D
:102700001101161C02130E1C0304711C030B2C1A5E
:102710001104151A09100D1A03056B1C030D291A53
:102720000F05181E0F0A0F1C0404741C11002A1A2E
:102730001106161C1306101E02076F1C11002E1C1A
:102740000710181E22000D180405791E040E2F1CF8
:102750000B0E181E100E0F1E0604751E060E2D1CE5
:102760000B10181E1E02101E08046A1A080D2F1CDA
:102770000716181E160D0F1E0A02721C13042E1CBB
:102780001C06161C2104101E08047A1E16032D1C9C
:10279000081A171E0C1C0F1E030A751E03172D1C8A
:1027A000041F181E0B1F0F1E0707741E15072D1C74
:1027B0000125171E131A0F1E050A731E130A2F1C5C
:1027C0000F19181E17190F1E0D03731E021D2E1C44
:1027D0002A01181E171C0F1E1100731E0A172E1C2B
:1027E0000A23181E13230F1E1101731E0E152E1C13
:1027F0001D13181E0B2E0F1E0D06731E0E172E1CFA
:102800002C07181E3B01101E0C07791E0C1A2F1CDA
:10281000270E181E16290F1E060E791E06222F1CC3
:102820002E0A181E02400F1E11047A1E1D0E2E1CA9
:10283000310A181E182E0F1E04127A1E0D202E1C8F
:10284000300E181E2A200F1E1404751E28072F1C78
:102850002B16181E0A430F1E1306761E121F2F1C5E
:102860002222181E143D0F1E000B0F13171B1F10E2
:10287000121416181A1C141618181A1C1C161818DC
:102880001A1A1C1C18181A1A1A1C1C181A1A1A1CA4
:102890001C940CBC05990AD304F60B620747080D7B
:1028A000062809780B5D04170A3205A6098306C9B4
:1028B00008EC07C40EE101AB0F8E001A0C3F037544
:1028C0000D5002D509F006BA089F070B0B2E0464C1
:1028D0000A4105690CFF00011902321AC603DF33F1
:1028E000EE1B68C74B0464E00E348DEF811CC16998
:1028F000F8C8084C71058A652FE1240F2135938EA5
:10290000DAF01282451DB5C27D6A27F9B9C99A0964
:10291000784DE472A606BF8B6266DD30FDE2982535
:10292000B31091228836D094CE8F96DBBDF1D213AE
:102930005C833846401E42B6A3C3487E6E6B3A287D
:1029400054FA85BA3DCA5E9B9F0A15792B4ED4E591
:10295000AC73F3A7570770C0F78C80630D674ADE2E
:10296000ED31C5FE18E3A5997726B8B47C114492E1
:10297000D92320892E373FD15B95BCCFCD90879747
:10298000B2DCFCBE61F256D3AB142A5D9E843C39A6
:1029900053476D41A21F2D43D8B77BA476C4174976
:1029A000EC7F0C6FF66CA13B52299D55AAFB60860B
:1029B000B1BBCC3E5ACB595FB09CA9A0510BF516C8
:1029C000EB7A752CD74FAED5E9E6E7ADE874D6F4CF
:1029D000EAA85058AF01020408102040801D3A7444
:1029E000E8CD8713264C982D5AB475EAC98F030693
:1029F0000C183060C09D274E9C254A94356AD4B58A
:102A000077EEC19F23468C050A142850A05DBA6951
:102A1000D2B96FDEA15FBE61C2992F5EBC65CA8963
:102A20000F1E3C78F0FDE7D3BB6BD6B17FFEE1DF34
:102A3000A35BB671E2D9AF4386112244880D1A34E4
:102A400068D0BD67CE811F3E7CF8EDC7933B76EC26
:102A5000C5973366CC85172E5CB86DDAA94F9E21D9
:102A60004284152A54A84D9A2952A455AA4992394C
:102A700072E4D5B773E6D1BF63C6913F7EFCE5D75C
:102A8000B37BF6F1FFE3DBAB4B963162C495376E57
:102A9000DCA557AE4182193264C88D070E1C387010
:102AA000E0DDA753A651A259B279F2F9EFC39B2BEF
:102AB00056AC458A09122448903D7AF4F5F7F3FBA9
:102AC000EBCB8B0B162C58B07DFAE9CF831B366C01
:102AD000D8AD478E00C477F372AA7D9D782F661813
:102AE00063416C7669125425517C5E4B5BF945CE8F
:102AF00040974FA04A5F356830313F063AB424838F
:102B000021DA2EED2B8916BE13E71CD0196207556A
:102B1000020C0D3B08FE00003F808200002080BABE
:102B200000002E80BA00002E80BA00002E808200A5
:102B3000002080FEAAAABF80000000000002000062
:102B40000000000000000002000000000000000083
:102B50000002000000000000000000020000000071
:102B60000000000000020000000000000000000261
:102B70000000000000000000000200000000000053
:102B80000000000200000000000000000002000041
:102B9000F8000080008800FE0000A8008200008885
:102BA00000BA0000F800BA00000000BA00000000FF
:102BB0008200000000FE00000000FFFFFFFFFFF8A2
:102BC0001004008008004001000200020001000023
:102BD00040000800008000040000100000200000F9
:102BE00020000FFC0007FF0001FFE0003FFE000394
:102BF000FFF000007FC00000FF800000FF800000A9
:102C0000000011241FBECFEFD8E0DEBFCDBF11E022
:102C1000A0E0B1E0E8E6F7E602C005900D92AE3420
:102C2000B107D9F714E0AEE4B1E001C01D92A739B5
:102C3000B107E1F70E94AA160C94B2330C9400007D
:102C40002A9808952A9A0895DF93CF930F92CDB7CB
:102C5000DEB7FC0121E030E00AC081918EBD0DB4E9
:102C600007FEFDCF8DB58F778DBD8EB58983215041
:102C700030408FEF2F3F380781F70F90CF91DF91D2
:102C800008958091C00087FFFCCF8091C600089511
:102C9000982F925D923010F0863E11F40E948A2F98
:102CA0000895803301F1813301F1823301F18333DF
:102CB00001F1843301F1853301F1863301F187336A
:102CC00001F1883301F1893301F1813401F182345A
:102CD00001F1833401F1843401F1853401F186344A
:102CE00001F58FE0089580E0089581E0089582E085
:102CF000089583E0089584E0089585E0089586E0CE
:102D0000089587E0089588E0089589E008958AE0AD
:102D100008958BE008958CE008958DE008958EE08D
:102D2000089580E008951F920F920FB60F9211241C
:102D30008F939F9380914E0190914F0101969093B4
:102D40004F0180934E019F918F910F900FBE0F9076
:102D50001F9018952F923F924F925F926F927F92A1
:102D60008F929F92AF92BF92CF92DF92EF92FF929B
:102D70000F931F93DF93CF93CDB7DEB7CF54D140DE
:102D80000FB6F894DEBF0FBECDBF8CE284B92A9A8D
:102D900086E58CBD1DBC1092C50087E68093C400FB
:102DA0008091C0008D7F8093C00086E08093C20038
:102DB00088E18093C1000E9420161A828E010E5F66
:102DC0001F4FC8010E9424161A82C8010E942416AF
:102DD0001A82C8010E942416EE24FF24C02E012F5F
:102DE000F701E859FF4FE491EA838C2D902F0E9460
:102DF00024160894E11CF11C20ECE21622E1F206F4
:102E000079F70E9422168FE19EE40197F1F700C046
:102E100000000E94201688E18A838C2D902F0E944A
:102E200024161A828C2D902F0E9424161A828C2D23
:102E3000902F0E9424160E94221620E030E0E4E643
:102E40002E2E312C2C0E3D1E72E0E72EF12CEC0EB6
:102E5000FD1E8E0108501F4F64EA462E512C4C0E69
:102E60005D1E1FC0C25BDE4F2883CE54D140C15BC4
:102E7000DE4F3883CF54D1400E944116C25BDE4FF3
:102E80002881CE54D140C15BDE4F3881CF54D14030
:102E9000F101E20FF31F80832F5F3F4F02C020E05C
:102EA00030E020343105F0F20E9420161A82C7016A
:102EB0000E9424161A82C7010E9424161A82C70192
:102EC0000E942416CC24DD24F601E85DFC4EE4913A
:102ED000EA83C7010E9424160894C11CD11C90ECFF
:102EE000C91692E1D90681F70E942216AFE1BEE42D
:102EF0001197F1F700C000000E942016B8E1BA83D4
:102F0000C7010E9424161A82C7010E9424161A8241
:102F1000C7010E9424160E94221680E090E0ECE097
:102F2000F0E0EC0FFD1FE80FF91F108201968032D0
:102F30009105A9F7AA24BB24CC24DD24F101EA0DD4
:102F4000FB1D80810E945116882EF5013196E20DFD
:102F5000F31D80810E945116829450EF8522882AA9
:102F6000ECE0F0E0EC0FFD1FEC0DFD1D8082E2E0D7
:102F7000F0E0AE0EBF1E0894C11CD11CF0E2CF16CB
:102F8000D104E1F60E94552F80E591E00E940C2AC1
:102F900089838981882309F082CF80E090E0F8015D
:102FA000E80FF91F1082019684359105C1F7C2011F
:102FB000B80140E020E030E00E94F92D898389814A
:102FC000882309F06CCFD80111968C9111978B83CF
:102FD00012968C9112978C8313968C9113978D83F4
:102FE00014968C918E83C201B80140E022E030E05B
:102FF0000E94F92D89838981882309F050CFF80137
:1030000081818F83828188878381898784818A8770
:10301000C201B80140E023E030E00E94F92D89832D
:103020008981882309F03BCFD80111968C918B8739
:10303000C201B80143E09E01245F3F4F0E947B2DF7
:10304000898389818823A9F480E090E0F801E80F62
:10305000F91F1082019684359105C1F7C201B801AC
:1030600044E420E030E00E94E62C898389818823B3
:1030700021F089810E94481612CF0E948A2F8983ED
:10308000439880E090E0ECE2F0E0EC0FFD1FE80FE9
:10309000F91F1082019688339105A9F780E090E02E
:1030A00001C0C9019C012F5F3F4FF801E20FF31FE0
:1030B0004081800F911FFC0140832132310589F747
:1030C00080E090E0FC01B096A3E0B0E0AC0FBD1F43
:1030D000A80FB91F2C91E00FF11F208301968930B2
:1030E000910581F7CE018C96B80149E250E00E942B
:1030F0000B318CEC93E0BE01645D7F4F0E949033F6
:103100000E9493238FEF97E9AAE381509040A0405B
:10311000E1F700C000000E94201694E29A83C701E4
:103120000E9424160E9422168FEF97E9AAE381508D
:103130009040A040E1F700C0000042EF642E4FEF46
:10314000742EAA24BB2440E088249924C25BDE4F5D
:103150004883CE54D1400E9420161A82C7010E9493
:103160002416BA82C7010E942416AA82C7010E94AF
:103170002416D301B695A795B695A795C45BDE4FE7
:10318000B983A883CC54D14022EFC22E2FEFD22E88
:10319000C25BDE4F4881CE54D140440FB6017695D4
:1031A0006795769567958091460190E06817790755
:1031B0008CF5C45BDE4FE881F981CC54D140E8172F
:1031C000F90744F5FB0183E0F595E7958A95E1F76A
:1031D0002091470130E0C45BDE4FA881B981CC5417
:1031E000D140A29FC001A39F900DB29F900D1124CA
:1031F000EC58FE4FE80FF91F208130E0CB0180959D
:1032000090958770907002C0359527958A95E2F762
:1032100020FD41600894811C911CB8E08B1691043C
:1032200040F040954A83C7010E94241640E088245C
:1032300099240894C11CD11CE2EECE16D10409F0E9
:10324000ACCFC25BDE4F4883CE54D1400E942216E1
:103250008FE19EE40197F1F700C00000AEE1B0E01D
:10326000AA0EBB1E0894611C711CC25BDE4F488114
:10327000CE54D140B0ECAB16B2E1BB0609F066CF3C
:103280000E942216EFE1FEE43197F1F700C0000042
:103290000E942016F8E1FA83C7010E9424161A82C0
:1032A000C7010E9424161A82C7010E9424160E9498
:1032B0002216F5CD681718F4982F862F692F70E025
:1032C000669F9001679F300D769F300D1124260F69
:1032D000371F36952795280F311DC90143E0969574
:1032E00087954A95E1F7E091BA2BF091BB2BE80F57
:1032F000F91F2770307080E890E002C0959587959F
:103300002A95E2F72081282B208308952F923F925F
:103310004F925F926F927F928F929F92AF92BF92E5
:10332000CF92DF92EF92FF920F931F93CF93DF9391
:103330004091470150E0649F9001659F300D749F5C
:10334000300D1124AC01A3E055954795AA95E1F7FE
:10335000240F351FE091152BF091162BE20FF31F70
:10336000AC014770507020E830E0D90102C0B5953B
:10337000A7954A95E2F7AD01A081A42BA083AC01EB
:10338000425050407A01F3E0F594E794FA95E1F762
:1033900047705070F90102C0F595E7954A95E2F73C
:1033A0003E2EAC014E5F5F4F6A01E3E0D594C794B7
:1033B000EA95E1F74770507002C0359527954A9518
:1033C000E2F7222E2EEF3FEF5EEFA52E5FEFB52E38
:1033D000A60EB71E00E810E04B010894811C911C5A
:1033E0003C010894611C711C42E0442E512C460E95
:1033F000571EF901E80FF91FAF01B3E05595479546
:10340000BA95E1F7A0914701CA2FD0E0AC9ED00158
:10341000AD9EB00DBC9EB00D11244A0F5B1FA09154
:10342000152BB091162BA40FB51FE770F070A801F3
:1034300002C055954795EA95E2F7FA014C914E2B5B
:103440004C93D401A20FB31FE0914701F0E0AE9F6F
:10345000A001AF9F500DBE9F500D11244E0D5F1D5A
:10346000E091152BF091162BE40FF51F40814329B5
:103470004083D901A60FB71FE0914701F0E0AE9F4E
:10348000A001AF9F500DBE9F500D11244C0D5D1D2E
:10349000E091152BF091162BE40FF51F4081422986
:1034A0004083F301E20FF31FAF01A3E05595479569
:1034B000AA95E1F7A0914701CA2FD0E04C9ED00118
:1034C0004D9EB00D5C9EB00D11244A0F5B1FA09164
:1034D000152BB091162BA40FB51FE770F070A80143
:1034E00002C055954795EA95E2F7FA014C914E2BAB
:1034F0004C932F5F3F4F2230310509F07ACFC0E067
:10350000D0E0E82E062F482E4A94682E6394862E2B
:103510008A94A62EA3946C2F600F842D0E945A19B2
:10352000602F6C1B862D0E945A198E2D8C1B682DC6
:103530000E945A198C2F8E0D6A2D0E945A192196BD
:10354000C230D10541F7DF91CF911F910F91FF90CC
:10355000EF90DF90CF90BF90AF909F908F907F9033
:103560006F905F904F903F902F9008952F923F92D1
:103570004F925F926F927F928F929F92AF92BF9283
:10358000CF92DF92EF92FF920F931F93DF93CF932F
:1035900000D000D000D0CDB7DEB780914601E82E34
:1035A000FF248091470190E09C01E29EC001E39ED0
:1035B000900DF29E900D112461E070E00E940E3299
:1035C0008093152B9093162B87010F5F1F4F0E9D35
:1035D000C0010F9D900D1E9D900D1124959587950E
:1035E000079668E070E00E94FB31CB0161E070E07B
:1035F0000E940E328093BA2B9093BB2BC8010E947D
:10360000323280937104909372049924392D3130B1
:1036100029F4E090460149EFE40E0AC0592D5230DA
:1036200031F4F090460169EFF60EEE2402C0EE246C
:10363000FF24CF2CDD2496012D5F3F4F0E2D10E08F
:10364000F3E06F2E712C600E711E4091470150E027
:10365000649EC001659E900D749E900D1124A90179
:10366000E3E055954795EA95E1F7840F951FE091C2
:10367000152BF091162BE80FF91F2770307080E89A
:1036800090E002C0959587952A95E2F79C0180818C
:10369000822B80834F2C4694469446945524C60131
:1036A00087709070A0E8B0E002C0B595A7958A95A4
:1036B000E2F7A983C6010696FC0173E0F595E7954C
:1036C0007A95E1F7FB83EA838770907020E830E019
:1036D00002C0359527958A95E2F7822EC80101969A
:1036E00056010894A11CB11C67E0262E312C200E37
:1036F000311EA8014A5F5F4F5D834C83D50111974E
:103700009D0153E0359527955A95E1F76091470162
:1037100070E0069FA001079F500D169F500D1124C9
:10372000240F351FE091152BF091162BE20FF31F9C
:10373000A770B07060E870E002C075956795AA95B3
:10374000E2F72081262B20834091470150E0849F9F
:103750009001859F300D949F300D1124240D351D4F
:10376000E091152BF091162BE20FF31F2081798148
:10377000272B2083BC01615070404091470150E0ED
:10378000649F9001659F300D749F300D1124AA81B4
:10379000BB812A0F3B1FE091152BF091162BE20FF6
:1037A000F31F208128292083950143E03595279533
:1037B0004A95E1F76091470170E0EC81FD81E69F59
:1037C000A001E79F500DF69F500D1124240F351FC7
:1037D000E091152BF091162BE20FF31F9501277046
:1037E000307040E850E002C0559547952A95E2F7C1
:1037F0009A014081422B408301960894A11CB11C80
:103800008215930509F07ACFBB24B3948E2C839450
:10381000AF2CA39485E0282E2F0CB5E04B2E4E0C38
:103820008B2D8F0D682D0E945A19682D6B0D8A2DD6
:103830000E945A196B2D6E0D822D0E945A198A2DE5
:103840008B0D642D0E945A19B3945B2D553041F7AE
:10385000C60102962C01A3E055944794AA95E1F77E
:103860009C012770307060E870E002C07595679524
:103870002A95E2F7862EA4E0B0E0CA0EDB1E5601C0
:10388000F3E0B594A794FA95E1F7B7E0CB22DD24F5
:10389000E0E8F0E002C0F595E795CA94E2F76F0121
:1038A00093014F2D50E04C5F5F4FE2E0EE2EF12C84
:1038B000E00EF11E0C5F1F4FDA01AC0173E055956D
:1038C00047957A95E1F7E0914701F0E0EE9EB0016F
:1038D000EF9E700DFE9E700D1124460F571FE09154
:1038E000152BF091162BE40FF51FAC0147705070AB
:1038F00060E870E002C0759567954A95E2F7AB0104
:103900006081642B60836091470170E0269FA00175
:10391000279F500D369F500D1124440D551DE091E9
:10392000152BF091162BE40FF51F40814829408399
:10393000F90131976091470170E0E69FA001E79F90
:10394000500DF69F500D11244A0D5B1DE091152B73
:10395000F091162BE40FF51F40814C29408301960E
:10396000AC0163E0559547956A95E1F7E091470111
:10397000F0E00E9FB0010F9F700D1E9F700D11247F
:10398000460F571FE091152BF091162BE40FF51FF2
:10399000AC014770507060E870E002C075956795A3
:1039A0004A95E2F7AB016081642B60832F5F3F4F44
:1039B0008A179B0709F081CF9394792D733009F012
:1039C00025CEE0914401E230C0F1F0E0E859F74D36
:1039D000E490F090460189EFF80E0E2D10E0C8013A
:1039E0000397DE2CD194075F1F4F5C014091460185
:1039F00047500BC0842F90E06F2D70E04E830E94E3
:103A000086194E814E1530F04D0D242F30E0A21650
:103A1000B30680F32F2D30E00217130770F4FD0C6E
:103A200086E090E06F2D70E00E9486198F2D90E067
:103A300066E070E00E948619D9CF2091460130E0FF
:103A4000285030404091470150E0249FC001259FFD
:103A5000900D349F900D11240196E091152BF0915B
:103A6000162BE80FF91F80818068808380E090E04A
:103A70007C0187E06E2D0E945A1980914601885082
:103A80006E2D0E945A196091460167506E0D87E0B5
:103A90000E945A190894E11CF11C97E0E916F10400
:103AA00041F780E090E07C018E2D67E00E945A197A
:103AB0008091460188508E0D67E00E945A196091EE
:103AC000460168508E2D0E945A190894E11CF11C81
:103AD000A8E0EA16F10441F700E010E0802F68E06A
:103AE0000E945A190F5F1F4F09301105B9F700E006
:103AF00010E0809146018850800F68E00E945A19BA
:103B000088E0602F0E945A190F5F1F4F083011057F
:103B100081F700E010E0609146016750600F88E097
:103B20000E945A190F5F1F4F07301105A1F780E05F
:103B300090E046E000E810E06C0147C0C0FE0EC017
:103B4000F8E0FF2EFC0C8F2D66E04E830E945A1980
:103B500086E06F2D0E945A194E8134C0C601089626
:103B60009C01E3E036952795EA95E1F760914701DE
:103B7000649FB0011124260F371FE091152BF0919F
:103B8000162BE20FF31F9C0127703070B80102C0A2
:103B9000759567952A95E2F75081562B5083609171
:103BA000470170E0869F9001879F300D969F300DF2
:103BB0001124E091152BF091162BE20FF31F808159
:103BC000826080830894C11CD11C8091460190E0E2
:103BD0000E97C816D90608F4B1CF809144018730FA
:103BE00008F49BC0682E7724F301EE0FFF1FED57FA
:103BF000F74D8590949085E090E061E1C62E50E805
:103C0000A52EB12C2C0179C01C3058F0812F90E0EA
:103C10000C97D30102C0B595A7958A95E2F7CD011F
:103C200007C0C401012E02C0969587950A94E2F759
:103C3000817060914601882309F443C070E06B50A5
:103C400070406E0D7F1D8091470190E0689F90014C
:103C5000699F300D789F300D1124E091152BF09164
:103C6000162BE20FF31F80818D29808380914601FE
:103C700090E00B978E0D9F1D9C0143E03595279595
:103C80004A95E1F76091470170E0469EA001479E8A
:103C9000500D569E500D1124240F351FE091152B09
:103CA000F091162BE20FF31F87709070950102C000
:103CB000359527958A95E2F7C9012081282B208325
:103CC0000CC06950601B842D0E945A1980914601D6
:103CD0008950801B642D0E945A190F5F115008945F
:103CE000E108F108033009F08FCF3DEFC30E0894CF
:103CF000410851084C2D4F3F81F0C20187709070F0
:103D0000B50102C0759567958A95E2F7D62E1C2DF0
:103D100002E0E02EF12C00E077CF80E090E07C0123
:103D200034C000E010E09801B3E036952795BA95CD
:103D3000E1F74091470150E0E49EC001E59E900DFF
:103D4000F49E900D1124E091152BF091162BE20FAB
:103D5000F31FE80FF91F808190E0980120953095BE
:103D60002770307002C0959587952A95E2F780FFFD
:103D700004C0802F6E2D0E945A190F5F1F4FE0164E
:103D8000F10688F60894E11CF11C8091460190E050
:103D9000E816F90630F226960FB6F894DEBF0FBE8D
:103DA000CDBFCF91DF911F910F91FF90EF90DF90EA
:103DB000CF90BF90AF909F908F907F906F905F90CB
:103DC0004F903F902F9008958091152B9091162B36
:103DD0000E94CC328091BA2B9091BB2B0E94CC32A6
:103DE00080917104909172040E94CC320895AF9238
:103DF000BF92CF92DF92EF92FF920F931F93DF93C8
:103E0000CF930F92CDB7DEB7082F60934401462FB2
:103E1000440F440F4F5E4093460150E09A01295FE2
:103E20003F4F93E0359527959A95E1F72093470109
:103E3000249F5001259FB00C349FB00C112480E0CA
:103E4000A81683E0B80618F4A12C83E0B82EC501AB
:103E500069830E94323280937401909375010093BC
:103E60004501802F90E00197698170E061507040BA
:103E7000660F771F660F771F860F971F880F991F92
:103E8000880F991FFC01E851FA4D208120934001D1
:103E90000196FC01E851FA4DE080E0924101FC01FD
:103EA000E751FA4D008100934201818180934301E3
:103EB00010E0FF246701C20ED11C98012E0D3F1D9A
:103EC000A801480F511D4C9DC0014D9D900D5C9D5A
:103ED000900D1124280F391FC501A216B30608F44E
:103EE000C9010E9432328093CC039093CD03970195
:103EF00023503040C09EC001C19E900DD09E900DB9
:103F00001124280F391FC9010F90CF91DF911F9104
:103F10000F91FF90EF90DF90CF90BF90AF900895FA
:103F2000FF920F931F93CF93DF93DB01E82FF0E015
:103F3000EE0FFF1FEE0FFF1FEC51FA4D61E0F08016
:103F400071819281472F50E09A01235030404F0DEC
:103F5000511D092F10E0409FE001419FD00D509F5F
:103F6000D00D11242C0F3D1FA217B30720F06F5F57
:103F70007096683221F7F09240017093410190935E
:103F800042010E94F71EDF91CF911F910F91FF9088
:103F900008959C0107C0C9018F5F9040292F3327E6
:103FA000280F311D2F3F3105B0F7C901089568175B
:103FB00018F4982F862F692F70E0669F9001679FF5
:103FC000300D769F300D1124260F371F369527951B
:103FD000280F311DF90143E0F695E7954A95E1F781
:103FE000E654F44D849190E0209530952770307020
:103FF00002C0959587952A95E2F7817008952F92D2
:104000003F924F925F926F927F928F929F92AF9268
:10401000BF92CF92DF92EF92FF920F931F93DF93A5
:10402000CF9300D0CDB7DEB7833009F44CC08430D5
:1040300058F4813009F45CC0B0904601C09047014B
:10404000823008F04DC061C0853011F1853068F1D3
:10405000863089F0873009F047C2B0904601409021
:104060004701552400E010E0EE24FF2430E020E872
:10407000622E712C35C2B090460180904701992480
:1040800000E010E070E0CC2490E8E92EF12CDCC1D7
:10409000B090460180904701992400E010E020E0B4
:1040A000CC2480E8E82EF12C87C1B09046018090A6
:1040B0004701992400E010E0CC24AA24A394B0E89E
:1040C000EB2EF12C2FC1A0904601C0904701DD24BA
:1040D00000E010E020E0BB24A0E8EA2EF12CE9C0CB
:1040E000DD2400E010E0AA24F0E8EF2EF12CA7C0B8
:1040F000B0904601609047017724EE24FF2400E051
:1041000010E0E0E8CE2ED12C64C06C2C772400E0C7
:1041100010E0EE24FF2470E8872E912C2BC0C0FC09
:104120001BC0822D6A2D0E94D71F8823A9F44694B4
:1041300046944694F801E40DF11DEC58FE4FC10180
:1041400087709070940102C0359527958A95E2F7A3
:10415000C9012081282720830894211C311C089440
:10416000C11CD11C422C2B14D0F20894E11CF11C70
:10417000060D171DAE2CEB1408F0B6C16701222402
:104180003324F0CF81149104D1F4822D6A2D0E9442
:10419000D71F8823A1F4469446944694F701E40D72
:1041A000F11DEC58FE4FC10187709070A60102C04E
:1041B000559547958A95E2F7208124272083089416
:1041C000211C311C422C2B14E8F20F5F1F4FE60C10
:1041D000F71CA02E0B1508F087C12224332461E0C0
:1041E000862E912C80229122EDCF833011F08823EE
:1041F000E1F4882D6A2D0E94D71F8823A9F48694A4
:1042000086948694F801E80DF11DEC58FE4FC30129
:1042100087709070970102C0359527958A95E2F7CF
:10422000C90120812827208380E08F5F0894611CCA
:10423000711C862C6B14C8F2A3940C0D1D1DAB14BD
:1042400008F052C16624772480E0F3CF233009F4CC
:1042500020E0822F6624772425C0833011F0882344
:10426000E9F4882D6B2D2A830E94D71F2A81882389
:10427000A1F4869486948694F801E80DF11DEC581B
:10428000FE4FC30187709070A70102C055954795F6
:104290008A95E2F730813427308380E08F5F08947D
:1042A000611C711C862C6A14C0F2B3942F5F0C0D34
:1042B0001D1DBA1458F218C12C2D269521704424C6
:1042C000552430E029C0333011F42A2530E0222370
:1042D000F9F4862D6C2D2A8339830E94D71F2A81F9
:1042E00039818823A9F4669466946694F801E60DF2
:1042F000F11DEC58FE4FC20187709070A70102C0FB
:10430000559547958A95E2F7CA0140814827408331
:104310003F5F0894411C511C642C4B14A0F2C394C1
:10432000080D191DCB1440F2DFC0233009F420E042
:104330006624772430E039C0333009F430E091E06E
:10434000332309F490E081E0222309F480E08923FB
:104350004A2D4C2150E041705070480F511D4115BD
:104360005105F9F48A2D6C2D2A8339830E94D71FB9
:104370002A8139818823A9F4A694A694A694F801E9
:10438000EA0DF11DEC58FE4FC30187709070A70134
:1043900002C0559547958A95E2F7CA0140814827A2
:1043A00040833F5F0894611C711CA62C6B1420F2A3
:1043B000C3942F5F080D191DCB1408F4B6CF94C019
:1043C000733009F470E06624772490E036C09330AF
:1043D00009F490E02A2D2C2130E0217030709923CF
:1043E00021F041E050E0971711F040E050E0240F39
:1043F000351F20FD1EC08A2D6C2D7A8399830E9463
:10440000D71F7A8199818823A1F4A694A694A694B3
:10441000F801EA0DF11DEC58FE4F93012770307042
:10442000A70102C0559547952A95E2F78081842718
:1044300080839F5F0894611C711CA62C6B1438F25A
:10444000C3947F5F080D191DCB1408F4B9CF4CC07D
:10445000333009F430E067012224332420E037C0F0
:10446000233029F0222321F0231711F404C020E087
:1044700040E050E002C041E050E04C0D5D1D40FDC9
:104480001FC0882D6A2D2A8339830E94D71F2A8155
:1044900039818823A9F4869486948694F801E80DDE
:1044A000F11DEC58FE4FC10187709070A30102C04E
:1044B000559547958A95E2F7CA0140814827408380
:1044C0002F5F0894211C311C0894C11CD11C822C24
:1044D0002B1430F23F5F0894E11CF11C040D151DF4
:1044E000AE2CEB1408F4B4CF0F900F90CF91DF9166
:1044F0001F910F91FF90EF90DF90CF90BF90AF9002
:104500009F908F907F906F905F904F903F902F90F3
:104510000895FF920F931F93CF93DF9320E030E035
:1045200090E0E92FF0E0EF58FB4F4081453020F05C
:1045300022503040240F311D9F5F891790F703E010
:1045400090E0DC01119713E03CC0FB01EF58FB4FFA
:10455000EF01229748816E5F7F4FEB01CF58DB4F11
:104560005881451769F5EF0121975881451741F5A5
:104570005181451729F5419FA0011124F080CF2DCD
:10458000D0E04C175D07E1F4EF012397F880FF209E
:10459000A9F06817790794F4440F551F440F551F6D
:1045A0006F2D619FE0011124C417D5073CF463818E
:1045B000619FB00111246417750714F0285D3F4F07
:1045C0000E5F602F70E06A177B070CF4BECFC90145
:1045D000DF91CF911F910F91FF9008952F923F92FD
:1045E0004F925F926F927F928F929F92AF92BF9203
:1045F000CF92DF92EF92FF920F931F93DF93CF93AF
:10460000CDB7DEB727970FB6F894DEBF0FBECDBF8C
:10461000A82EE92E662E5F834E83B22E022F10E065
:104620008E819F8160E070E0422F50E00E948933CC
:104630008A2C9E2C4E805F800894411C511C015096
:10464000104098012B583E4F3A8329834E815F8159
:10465000400F511F5C834B8348C0D401ED914D0145
:10466000AE81BF818C91E827F0E0EB52F74D2491A9
:104670002F3F11F1C980DA807D0177247394222EB7
:10468000332417C0F60182916F01A101480F511D1B
:10469000CA012D830E94C91FFC01EB52F64DE49123
:1046A000D70111968C911197E827ED937D017394B2
:1046B0002D817B1438F307C08E819F81B201A80140
:1046C0000E9477330EC02F3F61F08091740190E01B
:1046D000820F911D0E94C91FFC01EB52F64DE4911F
:1046E00001C0E0E0AB81BC81EC93882D8A1986156E
:1046F00008F4B3CF27960FB6F894DEBF0FBECDBF38
:10470000CF91DF911F910F91FF90EF90DF90CF90AD
:10471000BF90AF909F908F907F906F905F904F90E1
:104720003F902F9008952F923F924F925F926F92F9
:104730007F928F929F92AF92BF92CF92DF92EF9231
:10474000FF920F931F93DF93CF93CDB7DEB72F97D1
:104750000FB6F894DEBF0FBECDBFECECF3E00190D6
:104760000020E9F73197EC5CF3408091410190E043
:1047700020914001AC01420F511D2091420130E0D7
:10478000429F3001439F700C529F700C1124680EA1
:10479000791EC3010297E817F90740F02091440100
:1047A0002A3018F0F301339701C0FC013091440125
:1047B000DF01A453BC4F3A3068F112961C92129755
:1047C000CF0111C001974C91242F2295207F139681
:1047D0005C911397252B13962C93139742954F704A
:1047E00012964C9312971197009761F78E2F82952E
:1047F000807F9091CE03892B8093CE03CF0164E01C
:10480000969587956A95E1F78093CD038F2F8295D2
:104810008F7027C011961C921197CF0111C001977C
:104820004C91242F2295207F12965C911297252B74
:1048300012962C93129742954F7011964C931197A4
:104840001197009761F78E2F8295807F9091CD030D
:10485000892B8093CD03CF0154E0969587955A9587
:10486000E1F780648093CC0381E090E03A3010F06F
:1048700080E090E0E81BF90B3396DF01A453BC4FB6
:104880009CEE81E106C09C9311968C931197329611
:104890001296E615F705B8F3930124533C4F909018
:1048A000430181E08093740145E751E05C834B83D1
:1048B00000E010E03324339479015A83498346C0E1
:1048C000A981BA813D92BA83A983B02E202F30E00E
:1048D00028C04B2C5524D201AC58BE4FEC916D0131
:1048E0000894C108D108EE23A9F0F0E0EB52F74D8F
:1048F000E491C9018E0F911D2B873C870E94C91F2F
:10490000FC01EB52F64DE491D6018C91E8272B8502
:104910003C8502C0D601EC91D201AC58BE4FEC935D
:10492000BA94BB20B1F6E0917401F0E0EB52F74D80
:10493000E491C8018E0F911D0E94C91FFC01EB522A
:10494000F64DE491E09374010F5F1F4F091508F4D1
:10495000B7CF970180E0A82FB0E0AC58BE4FEC91E4
:10496000F0E0EB52F74DE491EC938F5F981698F7D7
:104970000CEC13E0EE24FF24690113C0C801609120
:104980004201A601209143010E94EE228091420142
:10499000080F111D80914301C80ED11C0894E11C21
:1049A000F11C8091400190E0E816F90638F3EE24FE
:1049B000FF24560114C06F5FC801A5012091430177
:1049C0000E94EE228091420190E00196080F191F8B
:1049D00080914301A80EB11C0894E11CF11C2090A9
:1049E0004101C22CDD2460914201EC14FD0418F356
:1049F00070E02091400130E04601820E931E44E7B2
:104A0000E42E41E0F42EE20EF31E629F5001639FFC
:104A1000B00C729FB00C1124E4E7F1E080E090E06C
:104A200044245524461A570AAB014F5F5F4F5A83FF
:104A30004983D90134C0D901A40DB51DAC91A1930E
:104A40004F5F5F4F260F371FAD81BE814A175B074F
:104A500090F3FC01C801950124533C4F40E050E025
:104A6000D7018C01CF0108C0F901E40DF51D319784
:104A7000E081ED934F5F5F4FE981FA812E0F3F1F79
:104A80004C155D0588F3AD81BE81FC01C801E80DC0
:104A9000F91D0196E80CF91C0894A11CB11C86179D
:104AA000970758F49C0124533C4F40E050E0BE83EC
:104AB000AD83DF018C01CD01C5CFAB014F5F5F4FEF
:104AC0002091400130E0629FC001639F900D729F72
:104AD000900D1124860F971F84539C4F20E030E0E7
:104AE000709561957F4F8F0108C0DC01A60FB71F3D
:104AF0001197AC91A1932F5F3F4F840F951F2C15F9
:104B00003D0598F3C00ED11EB09043014B2D50E0EF
:104B1000022D10E0809140014801880E911C20E098
:104B200030E0EE24FF24E41AF50A10C0FC01EE0D7B
:104B3000FF1DE081ED936F5F7F4F840F951F681518
:104B40007905A0F3C80CD91C2F5F3F4F24173507F8
:104B500048F4C901860D971D84539C4FD60160E02F
:104B600070E0EBCF9CECE92E93E0F92E80914001B0
:104B7000080F111D8B2D90E0089F9001099F300DAB
:104B8000189F300D1124260D371D04E711E0C701D1
:104B9000B801A9010E946E334091460180914701FE
:104BA000489FA0011124C80165E17BE20E946533A2
:104BB000B09046019B2D91504091410150E0809171
:104BC0004001BA01680F711D80914301209142019B
:104BD00030E0280F311D629F8001639F100D729F8E
:104BE000100D1124040F151F409047015524470153
:104BF000492FDD24D39451E020E030E080E8682E96
:104C0000712CEB2CFF240894E108F108AB2C19015E
:104C10005CC0D401CD904D01B8E0BB2EC7FE1CC0D6
:104C2000242F30E0249DF001259DF00D349DF00DE2
:104C30001124892F869586958695E80FF11DEC58ED
:104C4000FE4F292F2770B30102C0759567952A95ED
:104C5000E2F78081862B8083DD2011F091501EC009
:104C60009F5F552351F0442311F0415016C09250DC
:104C7000963089F450E049E00CC0242F30E02E1526
:104C80003F0511F04F5F0AC09250963031F4485002
:104C900051E095E003C050E001C051E081E0D11047
:104CA00080E0D82E892F642F4D875C879B870E94D8
:104CB000D71F4D855C859B85882371F6BA9411F0CA
:104CC000CC0CACCF0894211C311C2016310608F402
:104CD000A0CF0CEC13E0209147017A2D729F900138
:104CE0001124A4E78A2EA1E09A2EC801B401A901DB
:104CF0000E946E33DD24BB2480E395E79A83898389
:104D0000AA24A3948F82988609871A878D2D0E94E2
:104D1000FF1FC09046012C2C3324310108946108F8
:104D20007108409047015524EE24FF2400E0D7018C
:104D30008AC0812F86958695869590E0FA01E09548
:104D4000F095E770F070FF87EE878C589E4FFC015E
:104D5000E80DF91D608170E00E8402C075956795BD
:104D60000A94E2F74F5F5F4F60FF33C0BA01F3E090
:104D700075956795FA95E1F7409550954770507095
:104D8000F701E60FF71FE081F0E0042E02C0F59571
:104D9000E7950A94E2F7E0FF4EC0820F931FFC01F3
:104DA000808190E00E8402C0959587950A94E2F781
:104DB00080FF41C06C587E4F620F731FFB018081E2
:104DC00090E002C0959587954A95E2F780FD32C044
:104DD00032C0BA01E3E075956795EA95E1F7409531
:104DE000509547705070F701E60FF71FE081F0E033
:104DF000042E02C0F595E7950A94E2F7E0FD1BC08A
:104E0000820F931FFC01808190E00E8402C0959573
:104E100087950A94E2F780FD0EC08D819E81680F10
:104E2000791FFB01808190E002C0959587954A9596
:104E3000E2F780FF13961F5F412F50E0461557059C
:104E40000CF477CF0F5F802F90E0861597053CF02C
:104E50007D0180E090E000E010E04C0168C0849D9E
:104E60004001859D900C949D900C11240196849D89
:104E70009001859D300D949D300D112410E054E774
:104E8000E52E51E0F52EE80CF91CA9014C585E4FB7
:104E90005E834D83D1CF109271048091470190E0E1
:104EA000889E9001899E300D989E300D11244FEF01
:104EB0005FEF80E0A0E090E02C583E4F01C0AE2FA5
:104EC000692F669566956695F901E60FF11DE081FB
:104ED000F0E0BA016770707002C0F595E7956A95C9
:104EE000E2F7E170EA1741F4A82FB0E0AF58BB4FEA
:104EF0006C916F5F6C9306C08F5FA82FB0E0AF58C6
:104F0000BB4FAC92EE2319F061E070E002C06FEF8E
:104F10007FEF060F171F9F5F415050409C1578F29E
:104F20000E948922E80EF91E0894811C911C8C14A1
:104F300008F4B1CF17FF03C0109501951F4F22272A
:104F400017FD2095322FD901C80142E0880F991F23
:104F5000AA1FBB1F4A95D1F7800F911FA21FB31F35
:104F6000880F991FAA1FBB1F229C9001239C300D04
:104F7000329C300D1124442737FD4095542F60E0BA
:104F800070E006C0821B930BA40BB50B6F5F7F4FC5
:104F9000281739074A075B07A8F39B01220F331F25
:104FA00003E0660F771F0A95E1F7260F371F2E0DD6
:104FB0003F1D10E079013AC01092710460914701E1
:104FC00070E0E12FE695E695E695F0E0EC58FE4FAF
:104FD000A0E080E090E0212F30E020953095277010
:104FE00030701DC0408150E0022E02C0559547959B
:104FF0000A94E2F741704A1741F4A82FB0E0AF5885
:10500000BB4F5C915F5F5C9306C08F5FA82FB0E0E1
:10501000AF58BB4FAC929F5FE60FF71FA42F9C15B4
:1050200008F30E948922E80EF91E1F5F1C1520F26A
:1050300069817A81E616F70630F47D2D773001F12B
:10504000BD2CFA82E9828091470190E0289E900170
:10505000299E300D389E300D11248F8198856985E9
:105060007A85A9010E946E33D3948D2D883009F082
:105070004DCE9B2D983031F08B2D0E94FF1F02C02A
:1050800017E0B12EE0914501E150F0E0B3E0EE0F02
:10509000FF1FBA95E1F7EB0DF11DEE0FFF1FEB526D
:1050A000F54D859194914091470150E0BA01E3E0BC
:1050B000660F771FEA95E1F7DA01AB58BE4F2091F2
:1050C000460130E021503040EE2400E810E04B0172
:1050D000CB80DC8080FF22C0F90173E0F595E79575
:1050E0007A95E1F7E80DF91DEC58FE4FB9016770AC
:1050F0007070580102C0B594A7946A95E2F7B501A3
:10510000B080B62AB0826E2D663028F4F601608138
:105110006068608303C06C9160686C93E3949695BB
:105120008795C40ED51EA40FB51F21503040FE2D0B
:10513000F83081F64091470150E0FA0123E0EE0F8C
:10514000FF1F2A95E1F72091460130E027503040BB
:10515000249FD001259FB00D349FB00D1124AB5872
:10516000BE4F26E030E010E0EC58FE4F60E870E003
:1051700080FF16C00C9100680C93112371F007E0BA
:10518000A02EB12CA222B3226B0102C0D594C794E9
:10519000AA94E2F700810C2902C00081016000831B
:1051A0001F5F21503040A40FB51F173019F096959E
:1051B0008795DECF2F960FB6F894DEBF0FBECDBF1A
:1051C000CF91DF911F910F91FF90EF90DF90CF90E3
:1051D000BF90AF909F908F907F906F905F904F9017
:1051E0003F902F900895E4E6F0E080818F778083F0
:1051F00088E48093B80008951092BC00E4E6F0E0E3
:105200008081806880830895439A84EA8093BC00FB
:105210008AEF81508F3F61F09091BC0097FFF9CFEA
:105220008091B900887F883029F0803129F402C04C
:1052300081EF089580E0089580EF089584E98093D8
:10524000BC008AEF81508F3F51F09091BC0094FDDB
:10525000F9CF8091B900887F21F480EF089581EF24
:10526000089580E00895E62FF72F24E816C0919165
:105270009093BB002093BC009AEF91509F3F99F010
:105280003091BC0037FFF9CF9091B900987F9831E9
:1052900021F0983211F0903441F49E2F961B98170C
:1052A00030F380E0089581EF089588EF089524ECAD
:1052B0002093BC002AEF21502F3F99F03091BC0081
:1052C00037FFF9CF2091B900287F203521F00E94C7
:1052D0001E2980EF08952091BB00FC01208380E00F
:1052E000089581EF0895E62FF72F90E0019744ECA1
:1052F00012C04093BC002AEF21502F3F61F1309142
:10530000BC0037FFF9CF2091B900287F2035C9F4C0
:105310002091BB0021932E2F261B30E02817390740
:1053200044F384E88093BC008AEF81508F3FA9F05A
:105330009091BC0097FFF9CF8091B900887F8835A4
:1053400021F00E941E2980EF08958091BB00808388
:105350000E941E29089581EF089581EF0895DF923C
:10536000EF92FF920F931F93FA01262F372FD90147
:1053700020E030E090E045E050E814C0E32EEE1C61
:10538000EE24EE1C220F331FD12EDF2001E009F4A2
:1053900000E00E1511F024273527110F61507040E1
:1053A00069F79F5F981728F4FD9068E070E011E0BE
:1053B000E5CF208331831F910F91FF90EF90DF9015
:1053C00008950F931F93DF93CF9300D00F92CDB723
:1053D000DEB78C01FC0190819250892FB801AE019B
:1053E0004F5F5F4F9B830E94AF299B81F801E90FBC
:1053F000F11D99818081981721F49A8181819817F4
:1054000011F085EE01C080E00F900F900F90CF91CA
:10541000DF911F910F9108951F93CF93DF93EC01BC
:105420000E945B2F182F8823E1F484E0BE010E94C4
:10543000982F182F8823A9F48881843051F489810A
:10544000813149F48A81833341F48B81833429F497
:1054500008C014EE03C010EF01C015EE86E40E94F0
:10546000F72F812FDF91CF911F910895CF93DF9375
:10547000EB010E94C12F882341F00E948A2FCE01A8
:105480000E940C2A882309F488EEDF91CF910895B9
:105490007F928F929F92AF92BF92CF92DF92EF92C4
:1054A000FF920F931F93DF93CF9300D00F92CDB74E
:1054B000DEB76C01162F7A01822EFC019080892DB7
:1054C0008250402F50E028EE33E0429F5001439F2E
:1054D000B00C529FB00C112425E230E0A20EB31E96
:1054E000A601480F511DB6010E94AF2902E090EEBF
:1054F00067C0892DB6010E947C2F982F882319F54B
:10550000882D9B830E94F72F82E0782E9B814EC0CE
:1055100011928F5F8117E0F3BA82A982812FB701C0
:105520000E94982F29813A81255230403A8329835D
:1055300029813A812632310518F0873E79F30CC073
:10554000982F873E49F4812FB7019B830E94362A0A
:105550009B81873EA9F53EC0843E51F4812FB7015F
:105560000E94362A882309F1883E39F194EE32C030
:10557000C7010E94E129982F882361F4F7018081F7
:10558000853040F58181833011F18F3011F18F3FEB
:10559000B1F020C0812FB7019B830E94362A9B81E6
:1055A000882321F0883E61F015C094EE7A94F72D9F
:1055B000FF3F31F0F70180E0ADCF94EE01C094EDF4
:1055C00001500F3F39F0992309F093CF03C092EDBA
:1055D00001C093ED892F0F900F900F90CF91DF9125
:1055E0001F910F91FF90EF90DF90CF90BF90AF9001
:1055F0009F908F907F9008952F923F924F925F924D
:105600006F927F928F929F92AF92BF92CF92DF92D2
:10561000EF92FF920F931F93DF93CF930F92CDB72B
:10562000DEB7622E302F712F7E2C2C2C4D2C382C77
:10563000592C8F88988C8631E1F1873198F4883025
:10564000A1F1893030F48130C1F1823009F04AC0D3
:105650003BC0823109F442C08531E1F0813109F06B
:1056600041C01BC08C3109F440C08D3138F4883101
:1056700079F18831B0F08B31A9F522C0883229F058
:10568000803331F0803271F526C024E00BE10FC089
:1056900027E014C024E001E215C023E20CE21AE185
:1056A0002FC024E004E114E02BC023E208E11BE05A
:1056B00027C06330F1F424E01DC024E002E01FC0E5
:1056C00023E209E21AE01CC067FF17C023E216C0FC
:1056D00027E008E005C024E003E002C024E007E280
:1056E00013E00EC0298D06E40AC024E002E31DE0A9
:1056F00007C023E208E215E103C027E004E010E060
:1057000097E0B92EB60CB70CBA0CF401B192D401E3
:1057100011968C93DF0111966183FD0131961196EC
:105720004C931197518382E0C82ED12CCE0EDF1EF0
:10573000662061F0E62CFF24C601632F462D50E061
:1057400029830E946E33CE0CDF1C2981772059F00B
:10575000C601622D742D472D50E029830E946E33BF
:10576000C60CD11C2981AA2069F0EA2CFF24C601AD
:10577000632D752D4A2D50E029830E946E33CE0C87
:10578000DF1C29818B2D8250B401A60129830E9440
:10579000AF29C4012981622F4A8D5B8D212F0E9480
:1057A000482A0F90CF91DF911F910F91FF90EF90BA
:1057B000DF90CF90BF90AF909F908F907F906F9031
:1057C0005F904F903F902F900895AF92BF92CF92ED
:1057D000DF92EF92FF920F931F93CF93DF93FC0121
:1057E000DB01009709F44FC0109709F44CC0E11495
:1057F000F10409F448C0C114D10409F444C0842F51
:105800008762873209F03FC0203108F03CC084E550
:10581000808388E281834772428323831482CF018D
:1058200005960115110539F4AC0180E2EA011992DF
:105830008A95E9F709C020E2E80109908E01EC01A0
:105840000992CE012150C1F7CF01859620E2E701F0
:1058500009907E01EC010992CE012150C1F7CF01E0
:105860008B5B9F4F2DE0E60109906E01EC010992E0
:10587000CE012150C1F7CF0164E0AD012BE00BE177
:105880000E94482A01C082EEDF91CF911F910F91B3
:10589000FF90EF90DF90CF90BF90AF9008950F935F
:1058A0001F93CF93DF93DC01FB01E801009771F1B7
:1058B000309761F1842F8B7F49F5203138F58CE1E9
:1058C00011968C93119712964C93129713962C93D2
:1058D000139714961C921497209771F0CD0105969A
:1058E000A80120E2EA010990AE01EC010992CE0183
:1058F0002150C1F787E201C087E08C93CD0164E0BD
:10590000AF012DE002E30E94482A01C082EEDF9140
:10591000CF911F910F9108950F93FC01AB01009758
:1059200089F06115710571F087E0808380E38183E0
:10593000148213821282CF0167E020E002E00E940D
:10594000482A01C082EE0F9108950F931F93CF93C1
:10595000DF93DC01FB01E801009791F1309781F1C1
:10596000842F8150823060F5413019F4223040F5A7
:1059700002C0203128F585E111968C93119712967B
:105980004C93129713962C93139714961C9214977A
:10599000209761F0288139814A815B8115962D938A
:1059A0003D934D935C9318978BE001C087E08C93F7
:1059B000CD0164E0AF012AE001E20E94482A01C063
:1059C00082EEDF91CF911F910F9108950F93DC012B
:1059D000FB010097E1F03097D1F0842F8B78B9F478
:1059E00087E08C9381E111968C93119712964C93DA
:1059F000129713962C93139714963C931497CD01FA
:105A000063E2AF012AE10CE20E94482A01C082EE63
:105A10000F9108950F93DC01FB01009711F130976E
:105A200001F1842F8E77E9F447FF03C0211531057A
:105A3000C1F487E08C9387E111968C93119741789C
:105A400012964C93129713962C93139714963C939B
:105A50001497CD0164E0AF0124E004E10E94482ADC
:105A600001C082EE0F9108950F931F93CF93DF93A0
:105A7000DC01FB01E8010097C1F13097B1F1842FFF
:105A800090E0BC0168786115710579F5BC01617021
:105A9000707040FD02C0209741F187E08C9388E050
:105AA00011968C93119712964C93129713962C93F0
:105AB000139714963C9314976115710571F4CD01F9
:105AC0000596AE0120E2EA010990AE01EC010992CF
:105AD000CE012150C1F787E28C93CD0163E2AF0183
:105AE0002BE008E10E94482A01C082EEDF91CF91AD
:105AF0001F910F9108950F93CF93DF93DC01FB016A
:105B00000097E1F13097D1F121153105B9F1443019
:105B1000A8F5423099F186E111968C93119712966F
:105B20004C93129714961C92149713961C921397E9
:105B3000CD010596433071F0A90124E1EA010990F5
:105B4000AE01EC010992CE012150C1F78BE18C939B
:105B500063E20DC0A90120E2EA010990AE01EC0167
:105B60000992CE012150C1F787E28C9364E0CD0108
:105B7000AF0125E108E20E94482A01C082EEDF91D0
:105B8000CF910F9108950F93FC019B01009791F025
:105B90006115710579F087E0808381E0818342831C
:105BA00014821382CF0164E0A90120E002E00E9488
:105BB000482A01C082EE0F9108950F93FC019B01CA
:105BC0000097A1F06115710589F0423078F487E003
:105BD00080838BE18183128214821382CF0163E27E
:105BE000A9012AE009E20E94482A01C082EE0F9131
:105BF00008950F93DC01FB01009769F1309759F18B
:105C0000842F90E0BC016C776115710521F541FF8F
:105C100006C0369527953695279520FD1CC087E050
:105C20008C9382E011968C93119712964C93129755
:105C30002F7713962C93139714961C92149747FF63
:105C400002C063E201C067E0CD01AF0120E004E0E3
:105C50000E94482A01C082EE0F910895EF92FF92B0
:105C60000F93CF93DF93FC01EB017A01009759F179
:105C7000209749F14115510531F187E0808388E192
:105C80008183148213821282CF0167E0AE0123E088
:105C900008E00E94482A8823B9F4DE011196398170
:105CA00020E0FD01319611969C911197290F311D2D
:105CB0009281291B3109518140E0241B350BF701EA
:105CC0003183208301C082EEDF91CF910F91FF904D
:105CD000EF9008950F93DC01FB010097D9F0309706
:105CE000C9F04230B8F487E08C9380E211968C932F
:105CF000119712964C93129713962C931397149610
